{
  "contractName": "Blocks",
  "abi": [
    {
      "inputs": [],
      "name": "name",
      "outputs": [
        {
          "internalType": "string",
          "name": "",
          "type": "string"
        }
      ],
      "stateMutability": "view",
      "type": "function",
      "constant": true
    },
    {
      "inputs": [
        {
          "internalType": "bytes32",
          "name": "userKey",
          "type": "bytes32"
        },
        {
          "internalType": "string",
          "name": "userName",
          "type": "string"
        }
      ],
      "name": "newUser",
      "outputs": [
        {
          "internalType": "bool",
          "name": "success",
          "type": "bool"
        }
      ],
      "stateMutability": "nonpayable",
      "type": "function"
    },
    {
      "inputs": [
        {
          "internalType": "bytes32",
          "name": "userKey",
          "type": "bytes32"
        }
      ],
      "name": "getUser",
      "outputs": [
        {
          "internalType": "string",
          "name": "userName",
          "type": "string"
        },
        {
          "internalType": "uint256",
          "name": "fileCount",
          "type": "uint256"
        }
      ],
      "stateMutability": "view",
      "type": "function",
      "constant": true
    },
    {
      "inputs": [
        {
          "internalType": "bytes32",
          "name": "userKey",
          "type": "bytes32"
        },
        {
          "internalType": "bytes32",
          "name": "fileKey",
          "type": "bytes32"
        },
        {
          "internalType": "string",
          "name": "fileHash",
          "type": "string"
        }
      ],
      "name": "addFile",
      "outputs": [
        {
          "internalType": "bool",
          "name": "success",
          "type": "bool"
        }
      ],
      "stateMutability": "nonpayable",
      "type": "function"
    },
    {
      "inputs": [
        {
          "internalType": "bytes32",
          "name": "userKey",
          "type": "bytes32"
        },
        {
          "internalType": "bytes32",
          "name": "fileKey",
          "type": "bytes32"
        }
      ],
      "name": "getUserFile",
      "outputs": [
        {
          "internalType": "string",
          "name": "fileHash",
          "type": "string"
        }
      ],
      "stateMutability": "view",
      "type": "function",
      "constant": true
    }
  ],
  "bytecode": "0x60806040526040518060400160405280600a81526020017f426c6f636b7354657374000000000000000000000000000000000000000000008152506000908051906020019061004f929190610062565b5034801561005c57600080fd5b50610166565b82805461006e90610134565b90600052602060002090601f01602090048101928261009057600085556100d7565b82601f106100a957805160ff19168380011785556100d7565b828001600101855582156100d7579182015b828111156100d65782518255916020019190600101906100bb565b5b5090506100e491906100e8565b5090565b5b808211156101015760008160009055506001016100e9565b5090565b7f4e487b7100000000000000000000000000000000000000000000000000000000600052602260045260246000fd5b6000600282049050600182168061014c57607f821691505b602082108114156101605761015f610105565b5b50919050565b610963806101756000396000f3fe608060405234801561001057600080fd5b50600436106100575760003560e01c806306fdde031461005c57806313c045bf1461007a57806324f1fbd4146100aa578063432ffd9e146100da5780636517579c1461010a575b600080fd5b61006461013b565b6040516100719190610574565b60405180910390f35b610094600480360381019061008f9190610715565b6101c9565b6040516100a1919061078c565b60405180910390f35b6100c460048036038101906100bf91906107a7565b610229565b6040516100d1919061078c565b60405180910390f35b6100f460048036038101906100ef9190610816565b6102b2565b6040516101019190610574565b60405180910390f35b610124600480360381019061011f9190610856565b61036f565b60405161013292919061089c565b60405180910390f35b60008054610148906108fb565b80601f0160208091040260200160405190810160405280929190818152602001828054610174906108fb565b80156101c15780601f10610196576101008083540402835291602001916101c1565b820191906000526020600020905b8154815290600101906020018083116101a457829003601f168201915b505050505081565b6000816001600085815260200190815260200160002060000190805190602001906101f5929190610438565b5060028390806001815401808255809150506001900390600052602060002001600090919091909150556001905092915050565b6000600160008581526020019081526020016000206001018390806001815401808255809150506001900390600052602060002001600090919091909150558160016000868152602001908152602001600020600201600085815260200190815260200160002060000190805190602001906102a6929190610438565b50600190509392505050565b606060016000848152602001908152602001600020600201600083815260200190815260200160002060000180546102e9906108fb565b80601f0160208091040260200160405190810160405280929190818152602001828054610315906108fb565b80156103625780601f1061033757610100808354040283529160200191610362565b820191906000526020600020905b81548152906001019060200180831161034557829003601f168201915b5050505050905092915050565b606060006001600084815260200190815260200160002060000160016000858152602001908152602001600020600101805490508180546103af906108fb565b80601f01602080910402602001604051908101604052809291908181526020018280546103db906108fb565b80156104285780601f106103fd57610100808354040283529160200191610428565b820191906000526020600020905b81548152906001019060200180831161040b57829003601f168201915b5050505050915091509150915091565b828054610444906108fb565b90600052602060002090601f01602090048101928261046657600085556104ad565b82601f1061047f57805160ff19168380011785556104ad565b828001600101855582156104ad579182015b828111156104ac578251825591602001919060010190610491565b5b5090506104ba91906104be565b5090565b5b808211156104d75760008160009055506001016104bf565b5090565b600081519050919050565b600082825260208201905092915050565b60005b838110156105155780820151818401526020810190506104fa565b83811115610524576000848401525b50505050565b6000601f19601f8301169050919050565b6000610546826104db565b61055081856104e6565b93506105608185602086016104f7565b6105698161052a565b840191505092915050565b6000602082019050818103600083015261058e818461053b565b905092915050565b6000604051905090565b600080fd5b600080fd5b6000819050919050565b6105bd816105aa565b81146105c857600080fd5b50565b6000813590506105da816105b4565b92915050565b600080fd5b600080fd5b7f4e487b7100000000000000000000000000000000000000000000000000000000600052604160045260246000fd5b6106228261052a565b810181811067ffffffffffffffff82111715610641576106406105ea565b5b80604052505050565b6000610654610596565b90506106608282610619565b919050565b600067ffffffffffffffff8211156106805761067f6105ea565b5b6106898261052a565b9050602081019050919050565b82818337600083830152505050565b60006106b86106b384610665565b61064a565b9050828152602081018484840111156106d4576106d36105e5565b5b6106df848285610696565b509392505050565b600082601f8301126106fc576106fb6105e0565b5b813561070c8482602086016106a5565b91505092915050565b6000806040838503121561072c5761072b6105a0565b5b600061073a858286016105cb565b925050602083013567ffffffffffffffff81111561075b5761075a6105a5565b5b610767858286016106e7565b9150509250929050565b60008115159050919050565b61078681610771565b82525050565b60006020820190506107a1600083018461077d565b92915050565b6000806000606084860312156107c0576107bf6105a0565b5b60006107ce868287016105cb565b93505060206107df868287016105cb565b925050604084013567ffffffffffffffff811115610800576107ff6105a5565b5b61080c868287016106e7565b9150509250925092565b6000806040838503121561082d5761082c6105a0565b5b600061083b858286016105cb565b925050602061084c858286016105cb565b9150509250929050565b60006020828403121561086c5761086b6105a0565b5b600061087a848285016105cb565b91505092915050565b6000819050919050565b61089681610883565b82525050565b600060408201905081810360008301526108b6818561053b565b90506108c5602083018461088d565b9392505050565b7f4e487b7100000000000000000000000000000000000000000000000000000000600052602260045260246000fd5b6000600282049050600182168061091357607f821691505b60208210811415610927576109266108cc565b5b5091905056fea26469706673582212203a1d483d6aa685aed20a4bd3f66c558b14d0c54c3a1a823b3a9965f2fd3c64ee64736f6c634300080a0033",
  "immutableReferences": {},
  "source": "// //SPDX-License-Identifier: MIT\n// pragma solidity ^0.8.10;\n\n// contract Blocks {\n//   string public name = \"Blocks\";\n//   uint256 public fileCount = 0;\n//   mapping(uint256 => File) public files; // mapping number of files through our Struct;\n\n//   struct File {\n//     // file model that will be uploaded from users\n//     uint256 id;\n//     string fileHash;\n//     uint256 fileSize;\n//     string fileType;\n//     string fileName;\n//     string fileDescription;\n//     uint256 uploadTime;\n//     address uploader;\n//   }\n\n//   event FileUploaded(\n//     uint256 id,\n//     string fileHash,\n//     uint256 fileSize,\n//     string fileType,\n//     string fileName,\n//     string fileDescription,\n//     uint256 uploadTime,\n//     address uploader\n//   );\n\n//   // constructor() public { // when the contract is first deployed initialize state variable\n\n//   // }\n\n//   function uploadFile(\n//     string memory _fileHash,\n//     uint256 _fileSize,\n//     string memory _fileType,\n//     string memory _fileName,\n//     string memory _fileDescription\n//   ) public {\n//     require(bytes(_fileHash).length > 0); // validation for uploaded file from user\n//     require(bytes(_fileType).length > 0);\n//     require(bytes(_fileDescription).length > 0);\n//     require(bytes(_fileName).length > 0);\n//     require(msg.sender != address(0));\n\n//     require(_fileSize > 0);\n//     fileCount++;\n//     // string calldata mess = msg.sender;\n//     files[fileCount] = File(\n//       fileCount,\n//       _fileHash,\n//       _fileSize,\n//       _fileType,\n//       _fileName,\n//       _fileDescription,\n//       block.timestamp,\n//       msg.sender\n//     );\n\n//     emit FileUploaded(\n//       fileCount,\n//       _fileHash,\n//       _fileSize,\n//       _fileType,\n//       _fileName,\n//       _fileDescription,\n//       block.timestamp,\n//       msg.sender\n//     );\n//   }\n// }\n\n// pragma solidity ^0.8.10;\n\n// contract Blocks {\n//   string public name = \"BlocksTest\";\n//   uint256 public userCount = 0; //global counter to assign new users a new userId\n//   uint256 public fileCount = 0; //global counter to assign new files a new fileId\n\n//   //   mapping(uint256 => User) public users; //mapped key-value of users present\n//   //0:User1, 1:User2, 2:User3...\n\n//   //define the User struct\n//   struct User {\n//     uint256 id; //unique id for each user\n//     string userName; //userName\n//     uint256 fileCount; //user-specific file count\n//     File[] userFiles; //is this definition correct?\n//   }\n\n//   //define the File struct\n//   struct File {\n//     uint256 id; //Unique id for each file\n//     string fileHash; //CID\n//   }\n\n//   User[] public users; //state variable users to store user structs\n//   //   mapping(uint256 => User) public users;\n\n//   //define user creation event\n//   event UserCreated(uint256 id, string userName);\n\n//   //define file upload event\n//   event FileUploaded(uint256 fileCount, uint256 id, string fileHash);\n\n//   //function to add a new User\n//   function addUser(string memory _userName) public {\n//     require(bytes(_userName).length > 0); //require a name\n//     userCount++; //update global user count\n//     User memory newUser = User(userCount, _userName, 0, new File[](0)); //new User instance\n//     users[userCount - 1] = newUser; //add new user to users []\n\n//     emit UserCreated(userCount, _userName);\n//   }\n\n//   //function to upload a file for a specific User\n//   function uploadUserFile(\n//     uint256 _userId, //user the new file belongs to\n//     string memory _fileHash //CID\n//   ) public {\n//     require(_userId > 0); //check for userId\n//     require(bytes(_fileHash).length > 0); //check for CID\n//     fileCount++; //increase global file count\n\n//     File memory newFile = File(fileCount, _fileHash); //instantiate new file\n\n//     users[_userId - 1].fileCount++; //increase file count of user\n//     users[_userId - 1].userFiles.push(newFile); //add new file instance to user's files\n\n//     emit FileUploaded(fileCount, _userId, _fileHash);\n//   }\n\n//   //   constructor() public {\n//   //     addUser(\"testUser\"); //test user instance (should be id:1, name:'testUser, fileCount: 0, Files[])\n//   //     uploadUserFile(1, \"randomCIDFiller\"); //test file instance (should be id:1, fileHash: 'randomCIDFiller), and should be assigned to user1\n//   //   }\n// }\n\npragma solidity ^0.8.10;\n\ncontract Blocks {\n  string public name = \"BlocksTest\";\n\n  //define the File struct\n  struct File {\n    string fileHash; //CID\n  }\n\n  //define the User struct\n  struct User {\n    string userName; //userName\n    bytes32[] fileList; //list of file keys for lookup\n    mapping(bytes32 => File) fileStructs;\n  }\n\n  mapping(bytes32 => User) userStructs;\n  bytes32[] userList; //list of user keys to enumerate\n\n  function newUser(bytes32 userKey, string memory userName)\n    public\n    returns (bool success)\n  {\n    userStructs[userKey].userName = userName;\n    userList.push(userKey);\n    return true;\n  }\n\n  function getUser(bytes32 userKey)\n    public\n    view\n    returns (string memory userName, uint256 fileCount)\n  {\n    return (\n      userStructs[userKey].userName,\n      userStructs[userKey].fileList.length\n    );\n  }\n\n  function addFile(\n    bytes32 userKey,\n    bytes32 fileKey,\n    string memory fileHash\n  ) public returns (bool success) {\n    userStructs[userKey].fileList.push(fileKey);\n    userStructs[userKey].fileStructs[fileKey].fileHash = fileHash;\n    return true;\n  }\n\n  function getUserFile(bytes32 userKey, bytes32 fileKey)\n    public\n    view\n    returns (string memory fileHash)\n  {\n    return (userStructs[userKey].fileStructs[fileKey].fileHash);\n  }\n}\n",
  "sourcePath": "/Users/takumiotsuka/Documents/Fullstack/Senior/Blocks/contracts/Blocks.sol",
  "compiler": {
    "name": "solc",
    "version": "0.8.10+commit.fc410830.Emscripten.clang"
  },
  "schemaVersion": "3.4.3",
  "updatedAt": "2021-12-02T17:26:14.419Z",
  "networkType": "ethereum",
  "devdoc": {
    "kind": "dev",
    "methods": {},
    "version": 1
  },
  "userdoc": {
    "kind": "user",
    "methods": {},
    "version": 1
  }
}