{
  "contractName": "Blocks",
  "abi": [
    {
      "inputs": [],
      "stateMutability": "nonpayable",
      "type": "constructor"
    },
    {
      "inputs": [],
      "name": "name",
      "outputs": [
        {
          "internalType": "string",
          "name": "",
          "type": "string"
        }
      ],
      "stateMutability": "view",
      "type": "function",
      "constant": true
    },
    {
      "inputs": [
        {
          "internalType": "uint256",
          "name": "",
          "type": "uint256"
        }
      ],
      "name": "userStructs",
      "outputs": [
        {
          "internalType": "string",
          "name": "userName",
          "type": "string"
        }
      ],
      "stateMutability": "view",
      "type": "function",
      "constant": true
    },
    {
      "inputs": [
        {
          "internalType": "uint256",
          "name": "userKey",
          "type": "uint256"
        },
        {
          "internalType": "string",
          "name": "userName",
          "type": "string"
        }
      ],
      "name": "newUser",
      "outputs": [
        {
          "internalType": "bool",
          "name": "success",
          "type": "bool"
        }
      ],
      "stateMutability": "nonpayable",
      "type": "function"
    },
    {
      "inputs": [
        {
          "internalType": "uint256",
          "name": "userKey",
          "type": "uint256"
        }
      ],
      "name": "getUser",
      "outputs": [
        {
          "internalType": "string",
          "name": "userName",
          "type": "string"
        },
        {
          "internalType": "uint256",
          "name": "fileCount",
          "type": "uint256"
        }
      ],
      "stateMutability": "view",
      "type": "function",
      "constant": true
    },
    {
      "inputs": [
        {
          "internalType": "uint256",
          "name": "userKey",
          "type": "uint256"
        },
        {
          "internalType": "uint256",
          "name": "fileKey",
          "type": "uint256"
        },
        {
          "internalType": "string",
          "name": "fileHash",
          "type": "string"
        }
      ],
      "name": "addFile",
      "outputs": [
        {
          "internalType": "bool",
          "name": "success",
          "type": "bool"
        }
      ],
      "stateMutability": "nonpayable",
      "type": "function"
    },
    {
      "inputs": [
        {
          "internalType": "uint256",
          "name": "userKey",
          "type": "uint256"
        },
        {
          "internalType": "uint256",
          "name": "fileKey",
          "type": "uint256"
        }
      ],
      "name": "getUserFile",
      "outputs": [
        {
          "internalType": "string",
          "name": "fileHash",
          "type": "string"
        }
      ],
      "stateMutability": "view",
      "type": "function",
      "constant": true
    }
  ],
  "bytecode": "0x60806040526040518060400160405280600681526020017f426c6f636b7300000000000000000000000000000000000000000000000000008152506000908051906020019061004f929190610062565b5034801561005c57600080fd5b50610166565b82805461006e90610134565b90600052602060002090601f01602090048101928261009057600085556100d7565b82601f106100a957805160ff19168380011785556100d7565b828001600101855582156100d7579182015b828111156100d65782518255916020019190600101906100bb565b5b5090506100e491906100e8565b5090565b5b808211156101015760008160009055506001016100e9565b5090565b7f4e487b7100000000000000000000000000000000000000000000000000000000600052602260045260246000fd5b6000600282049050600182168061014c57607f821691505b602082108114156101605761015f610105565b5b50919050565b610a3a806101756000396000f3fe608060405234801561001057600080fd5b50600436106100625760003560e01c806306fdde03146100675780637949c7aa146100855780637a286dac146100b55780638a4366c0146100e5578063a6e35cb514610115578063b0467deb14610145575b600080fd5b61006f610176565b60405161007c9190610655565b60405180910390f35b61009f600480360381019061009a91906106c1565b610204565b6040516100ac9190610655565b60405180910390f35b6100cf60048036038101906100ca9190610701565b6102c1565b6040516100dc9190610655565b60405180910390f35b6100ff60048036038101906100fa9190610863565b610367565b60405161010c91906108da565b60405180910390f35b61012f600480360381019061012a91906108f5565b6103c7565b60405161013c91906108da565b60405180910390f35b61015f600480360381019061015a9190610701565b610450565b60405161016d929190610973565b60405180910390f35b60008054610183906109d2565b80601f01602080910402602001604051908101604052809291908181526020018280546101af906109d2565b80156101fc5780601f106101d1576101008083540402835291602001916101fc565b820191906000526020600020905b8154815290600101906020018083116101df57829003601f168201915b505050505081565b6060600160008481526020019081526020016000206002016000838152602001908152602001600020600001805461023b906109d2565b80601f0160208091040260200160405190810160405280929190818152602001828054610267906109d2565b80156102b45780601f10610289576101008083540402835291602001916102b4565b820191906000526020600020905b81548152906001019060200180831161029757829003601f168201915b5050505050905092915050565b60016020528060005260406000206000915090508060000180546102e4906109d2565b80601f0160208091040260200160405190810160405280929190818152602001828054610310906109d2565b801561035d5780601f106103325761010080835404028352916020019161035d565b820191906000526020600020905b81548152906001019060200180831161034057829003601f168201915b5050505050905081565b600081600160008581526020019081526020016000206000019080519060200190610393929190610519565b5060028390806001815401808255809150506001900390600052602060002001600090919091909150556001905092915050565b600060016000858152602001908152602001600020600101839080600181540180825580915050600190039060005260206000200160009091909190915055816001600086815260200190815260200160002060020160008581526020019081526020016000206000019080519060200190610444929190610519565b50600190509392505050565b60606000600160008481526020019081526020016000206000016001600085815260200190815260200160002060010180549050818054610490906109d2565b80601f01602080910402602001604051908101604052809291908181526020018280546104bc906109d2565b80156105095780601f106104de57610100808354040283529160200191610509565b820191906000526020600020905b8154815290600101906020018083116104ec57829003601f168201915b5050505050915091509150915091565b828054610525906109d2565b90600052602060002090601f016020900481019282610547576000855561058e565b82601f1061056057805160ff191683800117855561058e565b8280016001018555821561058e579182015b8281111561058d578251825591602001919060010190610572565b5b50905061059b919061059f565b5090565b5b808211156105b85760008160009055506001016105a0565b5090565b600081519050919050565b600082825260208201905092915050565b60005b838110156105f65780820151818401526020810190506105db565b83811115610605576000848401525b50505050565b6000601f19601f8301169050919050565b6000610627826105bc565b61063181856105c7565b93506106418185602086016105d8565b61064a8161060b565b840191505092915050565b6000602082019050818103600083015261066f818461061c565b905092915050565b6000604051905090565b600080fd5b600080fd5b6000819050919050565b61069e8161068b565b81146106a957600080fd5b50565b6000813590506106bb81610695565b92915050565b600080604083850312156106d8576106d7610681565b5b60006106e6858286016106ac565b92505060206106f7858286016106ac565b9150509250929050565b60006020828403121561071757610716610681565b5b6000610725848285016106ac565b91505092915050565b600080fd5b600080fd5b7f4e487b7100000000000000000000000000000000000000000000000000000000600052604160045260246000fd5b6107708261060b565b810181811067ffffffffffffffff8211171561078f5761078e610738565b5b80604052505050565b60006107a2610677565b90506107ae8282610767565b919050565b600067ffffffffffffffff8211156107ce576107cd610738565b5b6107d78261060b565b9050602081019050919050565b82818337600083830152505050565b6000610806610801846107b3565b610798565b90508281526020810184848401111561082257610821610733565b5b61082d8482856107e4565b509392505050565b600082601f83011261084a5761084961072e565b5b813561085a8482602086016107f3565b91505092915050565b6000806040838503121561087a57610879610681565b5b6000610888858286016106ac565b925050602083013567ffffffffffffffff8111156108a9576108a8610686565b5b6108b585828601610835565b9150509250929050565b60008115159050919050565b6108d4816108bf565b82525050565b60006020820190506108ef60008301846108cb565b92915050565b60008060006060848603121561090e5761090d610681565b5b600061091c868287016106ac565b935050602061092d868287016106ac565b925050604084013567ffffffffffffffff81111561094e5761094d610686565b5b61095a86828701610835565b9150509250925092565b61096d8161068b565b82525050565b6000604082019050818103600083015261098d818561061c565b905061099c6020830184610964565b9392505050565b7f4e487b7100000000000000000000000000000000000000000000000000000000600052602260045260246000fd5b600060028204905060018216806109ea57607f821691505b602082108114156109fe576109fd6109a3565b5b5091905056fea264697066735822122085bbf0396d8d00626eda928fd1f32f36ec695ba49b06541b7893d3f56c22f4ef64736f6c634300080a0033",
  "immutableReferences": {},
  "source": "// //SPDX-License-Identifier: MIT\npragma solidity ^0.8.10;\n\ncontract Blocks {\n  string public name = \"Blocks\";\n\n  //define the File struct\n  struct File {\n    string fileHash; //CID\n  }\n\n  //define the User struct\n  struct User {\n    string userName; //userName\n    uint256[] fileList; //list of file keys for lookup\n    mapping(uint256 => File) fileStructs;\n  }\n\n  mapping(uint256 => User) public userStructs;\n  uint256[] userList; //list of user keys to enumerate\n\n  constructor() public {}\n\n  //   //define user creation event\n  //   event UserCreated(bytes32 userKey, string userName);\n\n  function newUser(uint256 userKey, string memory userName)\n    public\n    returns (bool success)\n  {\n    userStructs[userKey].userName = userName;\n    userList.push(userKey);\n    return true;\n  }\n\n  function getUser(uint256 userKey)\n    public\n    view\n    returns (string memory userName, uint256 fileCount)\n  {\n    return (\n      userStructs[userKey].userName,\n      userStructs[userKey].fileList.length\n    );\n  }\n\n  function addFile(\n    uint256 userKey,\n    uint256 fileKey,\n    string memory fileHash\n  ) public returns (bool success) {\n    userStructs[userKey].fileList.push(fileKey);\n    userStructs[userKey].fileStructs[fileKey].fileHash = fileHash;\n    return true;\n  }\n\n  function getUserFile(uint256 userKey, uint256 fileKey)\n    public\n    view\n    returns (string memory fileHash)\n  {\n    return (userStructs[userKey].fileStructs[fileKey].fileHash);\n  }\n}\n",
  "sourcePath": "/Users/takumiotsuka/Documents/Fullstack/Senior/Blocks/contracts/Blocks.sol",
  "compiler": {
    "name": "solc",
    "version": "0.8.10+commit.fc410830.Emscripten.clang"
  },
  "schemaVersion": "3.4.3",
  "updatedAt": "2021-12-02T22:36:00.469Z",
  "networkType": "ethereum",
  "devdoc": {
    "kind": "dev",
    "methods": {},
    "version": 1
  },
  "userdoc": {
    "kind": "user",
    "methods": {},
    "version": 1
  }
}