{
  "contractName": "Blocks",
  "abi": [
    {
      "inputs": [],
      "name": "name",
      "outputs": [
        {
          "internalType": "string",
          "name": "",
          "type": "string"
        }
      ],
      "stateMutability": "view",
      "type": "function",
      "constant": true
    },
    {
      "inputs": [
        {
          "internalType": "uint256",
          "name": "",
          "type": "uint256"
        }
      ],
      "name": "userStructs",
      "outputs": [
        {
          "internalType": "string",
          "name": "userName",
          "type": "string"
        }
      ],
      "stateMutability": "view",
      "type": "function",
      "constant": true
    },
    {
      "inputs": [
        {
          "internalType": "uint256",
          "name": "userKey",
          "type": "uint256"
        },
        {
          "internalType": "string",
          "name": "userName",
          "type": "string"
        }
      ],
      "name": "newUser",
      "outputs": [
        {
          "internalType": "bool",
          "name": "success",
          "type": "bool"
        }
      ],
      "stateMutability": "nonpayable",
      "type": "function"
    },
    {
      "inputs": [
        {
          "internalType": "uint256",
          "name": "userKey",
          "type": "uint256"
        }
      ],
      "name": "getUser",
      "outputs": [
        {
          "internalType": "string",
          "name": "userName",
          "type": "string"
        },
        {
          "internalType": "uint256",
          "name": "fileCount",
          "type": "uint256"
        }
      ],
      "stateMutability": "view",
      "type": "function",
      "constant": true
    },
    {
      "inputs": [
        {
          "internalType": "uint256",
          "name": "userKey",
          "type": "uint256"
        },
        {
          "internalType": "uint256",
          "name": "fileKey",
          "type": "uint256"
        },
        {
          "internalType": "string",
          "name": "fileHash",
          "type": "string"
        },
        {
          "internalType": "string",
          "name": "description",
          "type": "string"
        }
      ],
      "name": "addFile",
      "outputs": [
        {
          "internalType": "bool",
          "name": "success",
          "type": "bool"
        }
      ],
      "stateMutability": "nonpayable",
      "type": "function"
    },
    {
      "inputs": [
        {
          "internalType": "uint256",
          "name": "userKey",
          "type": "uint256"
        },
        {
          "internalType": "uint256",
          "name": "fileKey",
          "type": "uint256"
        }
      ],
      "name": "getUserFile",
      "outputs": [
        {
          "internalType": "string",
          "name": "fileHash",
          "type": "string"
        },
        {
          "internalType": "string",
          "name": "description",
          "type": "string"
        },
        {
          "internalType": "uint256",
          "name": "fileNumber",
          "type": "uint256"
        }
      ],
      "stateMutability": "view",
      "type": "function",
      "constant": true
    }
  ],
  "bytecode": "0x60806040526040518060400160405280600681526020017f426c6f636b730000000000000000000000000000000000000000000000000000815250600090805190602001906200005192919062000066565b503480156200005f57600080fd5b506200017b565b828054620000749062000145565b90600052602060002090601f016020900481019282620000985760008555620000e4565b82601f10620000b357805160ff1916838001178555620000e4565b82800160010185558215620000e4579182015b82811115620000e3578251825591602001919060010190620000c6565b5b509050620000f39190620000f7565b5090565b5b8082111562000112576000816000905550600101620000f8565b5090565b7f4e487b7100000000000000000000000000000000000000000000000000000000600052602260045260246000fd5b600060028204905060018216806200015e57607f821691505b6020821081141562000175576200017462000116565b5b50919050565b610bf1806200018b6000396000f3fe608060405234801561001057600080fd5b50600436106100625760003560e01c806306fdde03146100675780637949c7aa146100855780637a286dac146100b757806381ff0fc7146100e75780638a4366c014610117578063b0467deb14610147575b600080fd5b61006f610178565b60405161007c9190610797565b60405180910390f35b61009f600480360381019061009a9190610803565b610206565b6040516100ae93929190610852565b60405180910390f35b6100d160048036038101906100cc9190610897565b61039d565b6040516100de9190610797565b60405180910390f35b61010160048036038101906100fc91906109f9565b610443565b60405161010e9190610ab3565b60405180910390f35b610131600480360381019061012c9190610ace565b610532565b60405161013e9190610ab3565b60405180910390f35b610161600480360381019061015c9190610897565b610592565b60405161016f929190610b2a565b60405180910390f35b6000805461018590610b89565b80601f01602080910402602001604051908101604052809291908181526020018280546101b190610b89565b80156101fe5780601f106101d3576101008083540402835291602001916101fe565b820191906000526020600020905b8154815290600101906020018083116101e157829003601f168201915b505050505081565b6060806000808511801561021a5750600084115b61022357600080fd5b6001600086815260200190815260200160002060020160008581526020019081526020016000206000016001600087815260200190815260200160002060020160008681526020019081526020016000206001018582805461028490610b89565b80601f01602080910402602001604051908101604052809291908181526020018280546102b090610b89565b80156102fd5780601f106102d2576101008083540402835291602001916102fd565b820191906000526020600020905b8154815290600101906020018083116102e057829003601f168201915b5050505050925081805461031090610b89565b80601f016020809104026020016040519081016040528092919081815260200182805461033c90610b89565b80156103895780601f1061035e57610100808354040283529160200191610389565b820191906000526020600020905b81548152906001019060200180831161036c57829003601f168201915b505050505091509250925092509250925092565b60016020528060005260406000206000915090508060000180546103c090610b89565b80601f01602080910402602001604051908101604052809291908181526020018280546103ec90610b89565b80156104395780601f1061040e57610100808354040283529160200191610439565b820191906000526020600020905b81548152906001019060200180831161041c57829003601f168201915b5050505050905081565b600080851180156104545750600084115b61045d57600080fd5b600083511161046b57600080fd5b600160008681526020019081526020016000206001018490806001815401808255809150506001900390600052602060002001600090919091909150558260016000878152602001908152602001600020600201600086815260200190815260200160002060000190805190602001906104e692919061065b565b5081600160008781526020019081526020016000206002016000868152602001908152602001600020600101908051906020019061052592919061065b565b5060019050949350505050565b60008160016000858152602001908152602001600020600001908051906020019061055e92919061065b565b5060028390806001815401808255809150506001900390600052602060002001600090919091909150556001905092915050565b606060006001600084815260200190815260200160002060000160016000858152602001908152602001600020600101805490508180546105d290610b89565b80601f01602080910402602001604051908101604052809291908181526020018280546105fe90610b89565b801561064b5780601f106106205761010080835404028352916020019161064b565b820191906000526020600020905b81548152906001019060200180831161062e57829003601f168201915b5050505050915091509150915091565b82805461066790610b89565b90600052602060002090601f01602090048101928261068957600085556106d0565b82601f106106a257805160ff19168380011785556106d0565b828001600101855582156106d0579182015b828111156106cf5782518255916020019190600101906106b4565b5b5090506106dd91906106e1565b5090565b5b808211156106fa5760008160009055506001016106e2565b5090565b600081519050919050565b600082825260208201905092915050565b60005b8381101561073857808201518184015260208101905061071d565b83811115610747576000848401525b50505050565b6000601f19601f8301169050919050565b6000610769826106fe565b6107738185610709565b935061078381856020860161071a565b61078c8161074d565b840191505092915050565b600060208201905081810360008301526107b1818461075e565b905092915050565b6000604051905090565b600080fd5b600080fd5b6000819050919050565b6107e0816107cd565b81146107eb57600080fd5b50565b6000813590506107fd816107d7565b92915050565b6000806040838503121561081a576108196107c3565b5b6000610828858286016107ee565b9250506020610839858286016107ee565b9150509250929050565b61084c816107cd565b82525050565b6000606082019050818103600083015261086c818661075e565b90508181036020830152610880818561075e565b905061088f6040830184610843565b949350505050565b6000602082840312156108ad576108ac6107c3565b5b60006108bb848285016107ee565b91505092915050565b600080fd5b600080fd5b7f4e487b7100000000000000000000000000000000000000000000000000000000600052604160045260246000fd5b6109068261074d565b810181811067ffffffffffffffff82111715610925576109246108ce565b5b80604052505050565b60006109386107b9565b905061094482826108fd565b919050565b600067ffffffffffffffff821115610964576109636108ce565b5b61096d8261074d565b9050602081019050919050565b82818337600083830152505050565b600061099c61099784610949565b61092e565b9050828152602081018484840111156109b8576109b76108c9565b5b6109c384828561097a565b509392505050565b600082601f8301126109e0576109df6108c4565b5b81356109f0848260208601610989565b91505092915050565b60008060008060808587031215610a1357610a126107c3565b5b6000610a21878288016107ee565b9450506020610a32878288016107ee565b935050604085013567ffffffffffffffff811115610a5357610a526107c8565b5b610a5f878288016109cb565b925050606085013567ffffffffffffffff811115610a8057610a7f6107c8565b5b610a8c878288016109cb565b91505092959194509250565b60008115159050919050565b610aad81610a98565b82525050565b6000602082019050610ac86000830184610aa4565b92915050565b60008060408385031215610ae557610ae46107c3565b5b6000610af3858286016107ee565b925050602083013567ffffffffffffffff811115610b1457610b136107c8565b5b610b20858286016109cb565b9150509250929050565b60006040820190508181036000830152610b44818561075e565b9050610b536020830184610843565b9392505050565b7f4e487b7100000000000000000000000000000000000000000000000000000000600052602260045260246000fd5b60006002820490506001821680610ba157607f821691505b60208210811415610bb557610bb4610b5a565b5b5091905056fea26469706673582212205a78b11e70de25545c90808c35a392b74503e8b44bbdc9751d3a800f1386b50264736f6c634300080a0033",
  "immutableReferences": {},
  "source": "// //SPDX-License-Identifier: MIT\npragma solidity ^0.8.10;\n\ncontract Blocks {\n  string public name = \"Blocks\";\n\n  //define the File struct\n  struct File {\n    string fileHash; //CID\n    string description; //file description\n  }\n\n  //define the User struct\n  struct User {\n    string userName; //userName\n    uint256[] fileList; //list of file keys for lookup\n    mapping(uint256 => File) fileStructs;\n  }\n\n  mapping(uint256 => User) public userStructs;\n  uint256[] userList; //list of user keys to enumerate - do we need?\n\n  //   constructor() public {}\n\n  //   //define user creation event\n  //   event UserCreated(bytes32 userKey, string userName);\n\n  function newUser(uint256 userKey, string memory userName)\n    public\n    returns (bool success)\n  {\n    userStructs[userKey].userName = userName;\n    userList.push(userKey); //do we need this?\n    return true;\n  }\n\n  function getUser(uint256 userKey)\n    public\n    view\n    returns (string memory userName, uint256 fileCount)\n  {\n    return (\n      userStructs[userKey].userName,\n      userStructs[userKey].fileList.length\n    );\n  }\n\n  function addFile(\n    uint256 userKey,\n    uint256 fileKey,\n    string memory fileHash,\n    string memory description\n  ) public returns (bool success) {\n    require(userKey > 0 && fileKey > 0);\n    require(bytes(fileHash).length > 0);\n\n    userStructs[userKey].fileList.push(fileKey);\n    userStructs[userKey].fileStructs[fileKey].fileHash = fileHash;\n    userStructs[userKey].fileStructs[fileKey].description = description;\n    return true;\n  }\n\n  function getUserFile(uint256 userKey, uint256 fileKey)\n    public\n    view\n    returns (\n      string memory fileHash,\n      string memory description,\n      uint256 fileNumber //aka fileKey\n    )\n  {\n    require(userKey > 0 && fileKey > 0);\n\n    return (\n      userStructs[userKey].fileStructs[fileKey].fileHash,\n      userStructs[userKey].fileStructs[fileKey].description,\n      fileKey\n    );\n  }\n}\n",
  "sourcePath": "/Users/takumiotsuka/Documents/Fullstack/Senior/Blocks/contracts/Blocks.sol",
  "compiler": {
    "name": "solc",
    "version": "0.8.10+commit.fc410830.Emscripten.clang"
  },
  "schemaVersion": "3.4.3",
  "updatedAt": "2021-12-04T22:11:01.513Z",
  "networkType": "ethereum",
  "devdoc": {
    "kind": "dev",
    "methods": {},
    "version": 1
  },
  "userdoc": {
    "kind": "user",
    "methods": {},
    "version": 1
  }
}