{
  "contractName": "Blocks",
  "abi": [
    {
      "anonymous": false,
      "inputs": [
        {
          "indexed": false,
          "internalType": "uint256",
          "name": "fileCount",
          "type": "uint256"
        },
        {
          "indexed": false,
          "internalType": "uint256",
          "name": "id",
          "type": "uint256"
        },
        {
          "indexed": false,
          "internalType": "string",
          "name": "fileHash",
          "type": "string"
        }
      ],
      "name": "FileUploaded",
      "type": "event"
    },
    {
      "anonymous": false,
      "inputs": [
        {
          "indexed": false,
          "internalType": "uint256",
          "name": "id",
          "type": "uint256"
        },
        {
          "indexed": false,
          "internalType": "string",
          "name": "userName",
          "type": "string"
        }
      ],
      "name": "UserCreated",
      "type": "event"
    },
    {
      "inputs": [],
      "name": "fileCount",
      "outputs": [
        {
          "internalType": "uint256",
          "name": "",
          "type": "uint256"
        }
      ],
      "stateMutability": "view",
      "type": "function",
      "constant": true
    },
    {
      "inputs": [],
      "name": "name",
      "outputs": [
        {
          "internalType": "string",
          "name": "",
          "type": "string"
        }
      ],
      "stateMutability": "view",
      "type": "function",
      "constant": true
    },
    {
      "inputs": [],
      "name": "userCount",
      "outputs": [
        {
          "internalType": "uint256",
          "name": "",
          "type": "uint256"
        }
      ],
      "stateMutability": "view",
      "type": "function",
      "constant": true
    },
    {
      "inputs": [
        {
          "internalType": "string",
          "name": "_userName",
          "type": "string"
        }
      ],
      "name": "addUser",
      "outputs": [],
      "stateMutability": "nonpayable",
      "type": "function"
    },
    {
      "inputs": [
        {
          "internalType": "uint256",
          "name": "_userId",
          "type": "uint256"
        },
        {
          "internalType": "string",
          "name": "_fileHash",
          "type": "string"
        }
      ],
      "name": "uploadUserFile",
      "outputs": [],
      "stateMutability": "nonpayable",
      "type": "function"
    }
  ],
  "bytecode": "0x60806040526040518060400160405280600a81526020017f426c6f636b7354657374000000000000000000000000000000000000000000008152506000908051906020019061004f92919061006c565b506000600155600060025534801561006657600080fd5b50610170565b8280546100789061013e565b90600052602060002090601f01602090048101928261009a57600085556100e1565b82601f106100b357805160ff19168380011785556100e1565b828001600101855582156100e1579182015b828111156100e05782518255916020019190600101906100c5565b5b5090506100ee91906100f2565b5090565b5b8082111561010b5760008160009055506001016100f3565b5090565b7f4e487b7100000000000000000000000000000000000000000000000000000000600052602260045260246000fd5b6000600282049050600182168061015657607f821691505b6020821081141561016a5761016961010f565b5b50919050565b6108d18061017f6000396000f3fe608060405234801561001057600080fd5b50600436106100575760003560e01c806306fdde031461005c57806307973ccf1461007a57806318b8275a1461009857806343953519146100b45780636685bb52146100d2575b600080fd5b6100646100ee565b6040516100719190610481565b60405180910390f35b61008261017c565b60405161008f91906104bc565b60405180910390f35b6100b260048036038101906100ad9190610620565b610182565b005b6100bc610268565b6040516100c991906104bc565b60405180910390f35b6100ec60048036038101906100e79190610695565b61026e565b005b600080546100fb90610720565b80601f016020809104026020016040519081016040528092919081815260200182805461012790610720565b80156101745780601f1061014957610100808354040283529160200191610174565b820191906000526020600020905b81548152906001019060200180831161015757829003601f168201915b505050505081565b60015481565b600081511161019057600080fd5b600160008154809291906101a390610781565b919050555060006040518060600160405280600154815260200183815260200160008152509050600381908060018154018082558091505060019003906000526020600020906003020160009091909190915060008201518160000155602082015181600101908051906020019061021c929190610345565b506040820151816002015550507fee305ea110dac8054a0415771cedeb3372a69ef1c3916abb2f5e1b3658d77c0e6001548360405161025c9291906107ca565b60405180910390a15050565b60025481565b6000821161027b57600080fd5b600081511161028957600080fd5b6002600081548092919061029c90610781565b919050555060006040518060400160405280600254815260200183815250905060036001846102cb91906107fa565b815481106102dc576102db61082e565b5b906000526020600020906003020160020160008154809291906102fe90610781565b91905055507f6cbf5c6455cb8d29b2ebc8b7ce13b6df5552119cc3eaa8d91783bab5e2442cd860025484846040516103389392919061085d565b60405180910390a1505050565b82805461035190610720565b90600052602060002090601f01602090048101928261037357600085556103ba565b82601f1061038c57805160ff19168380011785556103ba565b828001600101855582156103ba579182015b828111156103b957825182559160200191906001019061039e565b5b5090506103c791906103cb565b5090565b5b808211156103e45760008160009055506001016103cc565b5090565b600081519050919050565b600082825260208201905092915050565b60005b83811015610422578082015181840152602081019050610407565b83811115610431576000848401525b50505050565b6000601f19601f8301169050919050565b6000610453826103e8565b61045d81856103f3565b935061046d818560208601610404565b61047681610437565b840191505092915050565b6000602082019050818103600083015261049b8184610448565b905092915050565b6000819050919050565b6104b6816104a3565b82525050565b60006020820190506104d160008301846104ad565b92915050565b6000604051905090565b600080fd5b600080fd5b600080fd5b600080fd5b7f4e487b7100000000000000000000000000000000000000000000000000000000600052604160045260246000fd5b61052d82610437565b810181811067ffffffffffffffff8211171561054c5761054b6104f5565b5b80604052505050565b600061055f6104d7565b905061056b8282610524565b919050565b600067ffffffffffffffff82111561058b5761058a6104f5565b5b61059482610437565b9050602081019050919050565b82818337600083830152505050565b60006105c36105be84610570565b610555565b9050828152602081018484840111156105df576105de6104f0565b5b6105ea8482856105a1565b509392505050565b600082601f830112610607576106066104eb565b5b81356106178482602086016105b0565b91505092915050565b600060208284031215610636576106356104e1565b5b600082013567ffffffffffffffff811115610654576106536104e6565b5b610660848285016105f2565b91505092915050565b610672816104a3565b811461067d57600080fd5b50565b60008135905061068f81610669565b92915050565b600080604083850312156106ac576106ab6104e1565b5b60006106ba85828601610680565b925050602083013567ffffffffffffffff8111156106db576106da6104e6565b5b6106e7858286016105f2565b9150509250929050565b7f4e487b7100000000000000000000000000000000000000000000000000000000600052602260045260246000fd5b6000600282049050600182168061073857607f821691505b6020821081141561074c5761074b6106f1565b5b50919050565b7f4e487b7100000000000000000000000000000000000000000000000000000000600052601160045260246000fd5b600061078c826104a3565b91507fffffffffffffffffffffffffffffffffffffffffffffffffffffffffffffffff8214156107bf576107be610752565b5b600182019050919050565b60006040820190506107df60008301856104ad565b81810360208301526107f18184610448565b90509392505050565b6000610805826104a3565b9150610810836104a3565b92508282101561082357610822610752565b5b828203905092915050565b7f4e487b7100000000000000000000000000000000000000000000000000000000600052603260045260246000fd5b600060608201905061087260008301866104ad565b61087f60208301856104ad565b81810360408301526108918184610448565b905094935050505056fea26469706673582212207cee91b4debc50cbb72d73fa5d2dc668074d3d3ab27f0941fb7ec910b8f8280564736f6c634300080a0033",
  "immutableReferences": {},
  "source": "// //SPDX-License-Identifier: MIT\n// pragma solidity ^0.8.10;\n\n// contract Blocks {\n//   string public name = \"Blocks\";\n//   uint256 public fileCount = 0;\n//   mapping(uint256 => File) public files; // mapping number of files through our Struct;\n\n//   struct File {\n//     // file model that will be uploaded from users\n//     uint256 id;\n//     string fileHash;\n//     uint256 fileSize;\n//     string fileType;\n//     string fileName;\n//     string fileDescription;\n//     uint256 uploadTime;\n//     address uploader;\n//   }\n\n//   event FileUploaded(\n//     uint256 id,\n//     string fileHash,\n//     uint256 fileSize,\n//     string fileType,\n//     string fileName,\n//     string fileDescription,\n//     uint256 uploadTime,\n//     address uploader\n//   );\n\n//   // constructor() public { // when the contract is first deployed initialize state variable\n\n//   // }\n\n//   function uploadFile(\n//     string memory _fileHash,\n//     uint256 _fileSize,\n//     string memory _fileType,\n//     string memory _fileName,\n//     string memory _fileDescription\n//   ) public {\n//     require(bytes(_fileHash).length > 0); // validation for uploaded file from user\n//     require(bytes(_fileType).length > 0);\n//     require(bytes(_fileDescription).length > 0);\n//     require(bytes(_fileName).length > 0);\n//     require(msg.sender != address(0));\n\n//     require(_fileSize > 0);\n//     fileCount++;\n//     // string calldata mess = msg.sender;\n//     files[fileCount] = File(\n//       fileCount,\n//       _fileHash,\n//       _fileSize,\n//       _fileType,\n//       _fileName,\n//       _fileDescription,\n//       block.timestamp,\n//       msg.sender\n//     );\n\n//     emit FileUploaded(\n//       fileCount,\n//       _fileHash,\n//       _fileSize,\n//       _fileType,\n//       _fileName,\n//       _fileDescription,\n//       block.timestamp,\n//       msg.sender\n//     );\n//   }\n// }\n\npragma solidity ^0.8.10;\n\ncontract Blocks {\n  string public name = \"BlocksTest\";\n  uint256 public userCount = 0; //global counter to assign new users a new userId\n  uint256 public fileCount = 0; //global counter to assign new files a new fileId\n  User[] private users; //state variable users to store user structs\n\n  //   mapping(uint256 => User) public users; //mapped key-value of users present\n  //0:User1, 1:User2, 2:User3...\n\n  //define the User struct\n  struct User {\n    uint256 id; //unique id for each user\n    string userName; //userName\n    uint256 fileCount; //user-specific file count\n    // File[] userFiles; //is this definition correct?\n  }\n\n  //define the File struct\n  struct File {\n    uint256 id; //Unique id for each file\n    string fileHash; //CID\n  }\n\n  //define user creation event\n  event UserCreated(uint256 id, string userName);\n\n  //define file upload event\n  event FileUploaded(uint256 fileCount, uint256 id, string fileHash);\n\n  //function to add a new User\n  function addUser(string memory _userName) public {\n    require(bytes(_userName).length > 0); //require a name\n    userCount++; //update global user count\n    User memory newUser = User(userCount, _userName, 0); //new User instance\n    users.push(newUser); //add new user to users []\n\n    emit UserCreated(userCount, _userName);\n  }\n\n  //function to upload a file for a specific User\n  function uploadUserFile(\n    uint256 _userId, //user the new file belongs to\n    string memory _fileHash //CID\n  ) public {\n    require(_userId > 0); //check for userId\n    require(bytes(_fileHash).length > 0); //check for CID\n    fileCount++; //increase global file count\n\n    File memory newFile = File(fileCount, _fileHash); //instantiate new file\n\n    users[_userId - 1].fileCount++; //increase file count of user\n    // users[_userId - 1].userFiles.push(newFile); //add new file instance to user's files\n\n    emit FileUploaded(\n      fileCount,\n      _userId,\n      _fileHash\n      // block.timestamp,\n      // msg.sender\n    );\n  }\n\n  //   constructor() public {\n  //     addUser(\"testUser\"); //test user instance (should be id:1, name:'testUser, fileCount: 0, Files[])\n  //     uploadUserFile(1, \"randomCIDFiller\"); //test file instance (should be id:1, fileHash: 'randomCIDFiller), and should be assigned to user1\n  //   }\n}\n",
  "sourcePath": "/Users/takumiotsuka/Documents/Fullstack/Senior/Blocks/contracts/Blocks.sol",
  "compiler": {
    "name": "solc",
    "version": "0.8.10+commit.fc410830.Emscripten.clang"
  },
  "schemaVersion": "3.4.3",
  "updatedAt": "2021-12-01T23:57:38.236Z",
  "networkType": "ethereum",
  "devdoc": {
    "kind": "dev",
    "methods": {},
    "version": 1
  },
  "userdoc": {
    "kind": "user",
    "methods": {},
    "version": 1
  }
}