{
  "contractName": "Blocks",
  "abi": [
    {
      "inputs": [],
      "name": "name",
      "outputs": [
        {
          "internalType": "string",
          "name": "",
          "type": "string"
        }
      ],
      "stateMutability": "view",
      "type": "function",
      "constant": true
    },
    {
      "inputs": [
        {
          "internalType": "uint256",
          "name": "",
          "type": "uint256"
        }
      ],
      "name": "userStructs",
      "outputs": [
        {
          "internalType": "string",
          "name": "userName",
          "type": "string"
        }
      ],
      "stateMutability": "view",
      "type": "function",
      "constant": true
    },
    {
      "inputs": [
        {
          "internalType": "uint256",
          "name": "userKey",
          "type": "uint256"
        },
        {
          "internalType": "string",
          "name": "userName",
          "type": "string"
        }
      ],
      "name": "newUser",
      "outputs": [
        {
          "internalType": "bool",
          "name": "success",
          "type": "bool"
        }
      ],
      "stateMutability": "nonpayable",
      "type": "function"
    },
    {
      "inputs": [
        {
          "internalType": "uint256",
          "name": "userKey",
          "type": "uint256"
        }
      ],
      "name": "getUser",
      "outputs": [
        {
          "internalType": "string",
          "name": "userName",
          "type": "string"
        },
        {
          "internalType": "uint256",
          "name": "fileCount",
          "type": "uint256"
        }
      ],
      "stateMutability": "view",
      "type": "function",
      "constant": true
    },
    {
      "inputs": [
        {
          "internalType": "uint256",
          "name": "userKey",
          "type": "uint256"
        },
        {
          "internalType": "uint256",
          "name": "fileKey",
          "type": "uint256"
        },
        {
          "internalType": "string",
          "name": "fileHash",
          "type": "string"
        },
        {
          "internalType": "string",
          "name": "description",
          "type": "string"
        }
      ],
      "name": "addFile",
      "outputs": [
        {
          "internalType": "bool",
          "name": "success",
          "type": "bool"
        }
      ],
      "stateMutability": "nonpayable",
      "type": "function"
    },
    {
      "inputs": [
        {
          "internalType": "uint256",
          "name": "userKey",
          "type": "uint256"
        },
        {
          "internalType": "uint256",
          "name": "fileKey",
          "type": "uint256"
        }
      ],
      "name": "getUserFile",
      "outputs": [
        {
          "internalType": "string",
          "name": "fileHash",
          "type": "string"
        },
        {
          "internalType": "string",
          "name": "description",
          "type": "string"
        }
      ],
      "stateMutability": "view",
      "type": "function",
      "constant": true
    }
  ],
  "bytecode": "0x60806040526040518060400160405280600681526020017f426c6f636b730000000000000000000000000000000000000000000000000000815250600090805190602001906200005192919062000066565b503480156200005f57600080fd5b506200017b565b828054620000749062000145565b90600052602060002090601f016020900481019282620000985760008555620000e4565b82601f10620000b357805160ff1916838001178555620000e4565b82800160010185558215620000e4579182015b82811115620000e3578251825591602001919060010190620000c6565b5b509050620000f39190620000f7565b5090565b5b8082111562000112576000816000905550600101620000f8565b5090565b7f4e487b7100000000000000000000000000000000000000000000000000000000600052602260045260246000fd5b600060028204905060018216806200015e57607f821691505b6020821081141562000175576200017462000116565b5b50919050565b610bde806200018b6000396000f3fe608060405234801561001057600080fd5b50600436106100625760003560e01c806306fdde03146100675780637949c7aa146100855780637a286dac146100b657806381ff0fc7146100e65780638a4366c014610116578063b0467deb14610146575b600080fd5b61006f610177565b60405161007c9190610792565b60405180910390f35b61009f600480360381019061009a91906107fe565b610205565b6040516100ad92919061083e565b60405180910390f35b6100d060048036038101906100cb9190610875565b610398565b6040516100dd9190610792565b60405180910390f35b61010060048036038101906100fb91906109d7565b61043e565b60405161010d9190610a91565b60405180910390f35b610130600480360381019061012b9190610aac565b61052d565b60405161013d9190610a91565b60405180910390f35b610160600480360381019061015b9190610875565b61058d565b60405161016e929190610b17565b60405180910390f35b6000805461018490610b76565b80601f01602080910402602001604051908101604052809291908181526020018280546101b090610b76565b80156101fd5780601f106101d2576101008083540402835291602001916101fd565b820191906000526020600020905b8154815290600101906020018083116101e057829003601f168201915b505050505081565b6060806000841180156102185750600083115b61022157600080fd5b60016000858152602001908152602001600020600201600084815260200190815260200160002060000160016000868152602001908152602001600020600201600085815260200190815260200160002060010181805461028190610b76565b80601f01602080910402602001604051908101604052809291908181526020018280546102ad90610b76565b80156102fa5780601f106102cf576101008083540402835291602001916102fa565b820191906000526020600020905b8154815290600101906020018083116102dd57829003601f168201915b5050505050915080805461030d90610b76565b80601f016020809104026020016040519081016040528092919081815260200182805461033990610b76565b80156103865780601f1061035b57610100808354040283529160200191610386565b820191906000526020600020905b81548152906001019060200180831161036957829003601f168201915b50505050509050915091509250929050565b60016020528060005260406000206000915090508060000180546103bb90610b76565b80601f01602080910402602001604051908101604052809291908181526020018280546103e790610b76565b80156104345780601f1061040957610100808354040283529160200191610434565b820191906000526020600020905b81548152906001019060200180831161041757829003601f168201915b5050505050905081565b6000808511801561044f5750600084115b61045857600080fd5b600083511161046657600080fd5b600160008681526020019081526020016000206001018490806001815401808255809150506001900390600052602060002001600090919091909150558260016000878152602001908152602001600020600201600086815260200190815260200160002060000190805190602001906104e1929190610656565b50816001600087815260200190815260200160002060020160008681526020019081526020016000206001019080519060200190610520929190610656565b5060019050949350505050565b600081600160008581526020019081526020016000206000019080519060200190610559929190610656565b5060028390806001815401808255809150506001900390600052602060002001600090919091909150556001905092915050565b606060006001600084815260200190815260200160002060000160016000858152602001908152602001600020600101805490508180546105cd90610b76565b80601f01602080910402602001604051908101604052809291908181526020018280546105f990610b76565b80156106465780601f1061061b57610100808354040283529160200191610646565b820191906000526020600020905b81548152906001019060200180831161062957829003601f168201915b5050505050915091509150915091565b82805461066290610b76565b90600052602060002090601f01602090048101928261068457600085556106cb565b82601f1061069d57805160ff19168380011785556106cb565b828001600101855582156106cb579182015b828111156106ca5782518255916020019190600101906106af565b5b5090506106d891906106dc565b5090565b5b808211156106f55760008160009055506001016106dd565b5090565b600081519050919050565b600082825260208201905092915050565b60005b83811015610733578082015181840152602081019050610718565b83811115610742576000848401525b50505050565b6000601f19601f8301169050919050565b6000610764826106f9565b61076e8185610704565b935061077e818560208601610715565b61078781610748565b840191505092915050565b600060208201905081810360008301526107ac8184610759565b905092915050565b6000604051905090565b600080fd5b600080fd5b6000819050919050565b6107db816107c8565b81146107e657600080fd5b50565b6000813590506107f8816107d2565b92915050565b60008060408385031215610815576108146107be565b5b6000610823858286016107e9565b9250506020610834858286016107e9565b9150509250929050565b600060408201905081810360008301526108588185610759565b9050818103602083015261086c8184610759565b90509392505050565b60006020828403121561088b5761088a6107be565b5b6000610899848285016107e9565b91505092915050565b600080fd5b600080fd5b7f4e487b7100000000000000000000000000000000000000000000000000000000600052604160045260246000fd5b6108e482610748565b810181811067ffffffffffffffff82111715610903576109026108ac565b5b80604052505050565b60006109166107b4565b905061092282826108db565b919050565b600067ffffffffffffffff821115610942576109416108ac565b5b61094b82610748565b9050602081019050919050565b82818337600083830152505050565b600061097a61097584610927565b61090c565b905082815260208101848484011115610996576109956108a7565b5b6109a1848285610958565b509392505050565b600082601f8301126109be576109bd6108a2565b5b81356109ce848260208601610967565b91505092915050565b600080600080608085870312156109f1576109f06107be565b5b60006109ff878288016107e9565b9450506020610a10878288016107e9565b935050604085013567ffffffffffffffff811115610a3157610a306107c3565b5b610a3d878288016109a9565b925050606085013567ffffffffffffffff811115610a5e57610a5d6107c3565b5b610a6a878288016109a9565b91505092959194509250565b60008115159050919050565b610a8b81610a76565b82525050565b6000602082019050610aa66000830184610a82565b92915050565b60008060408385031215610ac357610ac26107be565b5b6000610ad1858286016107e9565b925050602083013567ffffffffffffffff811115610af257610af16107c3565b5b610afe858286016109a9565b9150509250929050565b610b11816107c8565b82525050565b60006040820190508181036000830152610b318185610759565b9050610b406020830184610b08565b9392505050565b7f4e487b7100000000000000000000000000000000000000000000000000000000600052602260045260246000fd5b60006002820490506001821680610b8e57607f821691505b60208210811415610ba257610ba1610b47565b5b5091905056fea264697066735822122029625dc482e94921db9a583fb60ea60d730543d81b4ee502bd6f3d7e8c3bc0f764736f6c634300080a0033",
  "immutableReferences": {},
  "source": "// //SPDX-License-Identifier: MIT\npragma solidity ^0.8.10;\n\ncontract Blocks {\n  string public name = \"Blocks\";\n\n  //define the File struct\n  struct File {\n    string fileHash; //CID\n    string description; //file description\n  }\n\n  //define the User struct\n  struct User {\n    string userName; //userName\n    uint256[] fileList; //list of file keys for lookup\n    mapping(uint256 => File) fileStructs;\n  }\n\n  mapping(uint256 => User) public userStructs;\n  uint256[] userList; //list of user keys to enumerate - do we need?\n\n  //   constructor() public {}\n\n  //   //define user creation event\n  //   event UserCreated(bytes32 userKey, string userName);\n\n  function newUser(uint256 userKey, string memory userName)\n    public\n    returns (bool success)\n  {\n    userStructs[userKey].userName = userName;\n    userList.push(userKey); //do we need this?\n    return true;\n  }\n\n  function getUser(uint256 userKey)\n    public\n    view\n    returns (string memory userName, uint256 fileCount)\n  {\n    return (\n      userStructs[userKey].userName,\n      userStructs[userKey].fileList.length\n    );\n  }\n\n  function addFile(\n    uint256 userKey,\n    uint256 fileKey,\n    string memory fileHash,\n    string memory description\n  ) public returns (bool success) {\n    require(userKey > 0 && fileKey > 0);\n    require(bytes(fileHash).length > 0);\n\n    userStructs[userKey].fileList.push(fileKey);\n    userStructs[userKey].fileStructs[fileKey].fileHash = fileHash;\n    userStructs[userKey].fileStructs[fileKey].description = description;\n    return true;\n  }\n\n  function getUserFile(uint256 userKey, uint256 fileKey)\n    public\n    view\n    returns (string memory fileHash, string memory description)\n  {\n    require(userKey > 0 && fileKey > 0);\n\n    return (\n      userStructs[userKey].fileStructs[fileKey].fileHash,\n      userStructs[userKey].fileStructs[fileKey].description\n    );\n  }\n}\n",
  "sourcePath": "/Users/takumiotsuka/Documents/Fullstack/Senior/Blocks/contracts/Blocks.sol",
  "compiler": {
    "name": "solc",
    "version": "0.8.10+commit.fc410830.Emscripten.clang"
  },
  "schemaVersion": "3.4.3",
  "updatedAt": "2021-12-03T18:08:37.354Z",
  "networkType": "ethereum",
  "devdoc": {
    "kind": "dev",
    "methods": {},
    "version": 1
  },
  "userdoc": {
    "kind": "user",
    "methods": {},
    "version": 1
  }
}