{
  "contractName": "Blocks",
  "abi": [
    {
      "inputs": [],
      "name": "name",
      "outputs": [
        {
          "internalType": "string",
          "name": "",
          "type": "string"
        }
      ],
      "stateMutability": "view",
      "type": "function",
      "constant": true
    },
    {
      "inputs": [
        {
          "internalType": "uint256",
          "name": "",
          "type": "uint256"
        }
      ],
      "name": "userStructs",
      "outputs": [
        {
          "internalType": "uint256",
          "name": "userKey",
          "type": "uint256"
        }
      ],
      "stateMutability": "view",
      "type": "function",
      "constant": true
    },
    {
      "inputs": [
        {
          "internalType": "uint256",
          "name": "userKey",
          "type": "uint256"
        }
      ],
      "name": "newUser",
      "outputs": [
        {
          "internalType": "bool",
          "name": "success",
          "type": "bool"
        }
      ],
      "stateMutability": "nonpayable",
      "type": "function"
    },
    {
      "inputs": [
        {
          "internalType": "uint256",
          "name": "userKey",
          "type": "uint256"
        }
      ],
      "name": "getUser",
      "outputs": [
        {
          "internalType": "uint256",
          "name": "fileCount",
          "type": "uint256"
        }
      ],
      "stateMutability": "view",
      "type": "function",
      "constant": true
    },
    {
      "inputs": [
        {
          "internalType": "uint256",
          "name": "userKey",
          "type": "uint256"
        },
        {
          "internalType": "uint256",
          "name": "fileKey",
          "type": "uint256"
        },
        {
          "internalType": "string",
          "name": "fileHash",
          "type": "string"
        },
        {
          "internalType": "string",
          "name": "fileType",
          "type": "string"
        },
        {
          "internalType": "string",
          "name": "description",
          "type": "string"
        }
      ],
      "name": "addFile",
      "outputs": [
        {
          "internalType": "bool",
          "name": "success",
          "type": "bool"
        }
      ],
      "stateMutability": "nonpayable",
      "type": "function"
    },
    {
      "inputs": [
        {
          "internalType": "uint256",
          "name": "userKey",
          "type": "uint256"
        },
        {
          "internalType": "uint256",
          "name": "fileKey",
          "type": "uint256"
        }
      ],
      "name": "getUserFile",
      "outputs": [
        {
          "internalType": "string",
          "name": "fileHash",
          "type": "string"
        },
        {
          "internalType": "string",
          "name": "description",
          "type": "string"
        },
        {
          "internalType": "string",
          "name": "fileType",
          "type": "string"
        },
        {
          "internalType": "uint256",
          "name": "fileNumber",
          "type": "uint256"
        }
      ],
      "stateMutability": "view",
      "type": "function",
      "constant": true
    }
  ],
  "bytecode": "0x60806040526040518060400160405280600681526020017f426c6f636b7300000000000000000000000000000000000000000000000000008152506000908051906020019061004f929190610062565b5034801561005c57600080fd5b50610166565b82805461006e90610134565b90600052602060002090601f01602090048101928261009057600085556100d7565b82601f106100a957805160ff19168380011785556100d7565b828001600101855582156100d7579182015b828111156100d65782518255916020019190600101906100bb565b5b5090506100e491906100e8565b5090565b5b808211156101015760008160009055506001016100e9565b5090565b7f4e487b7100000000000000000000000000000000000000000000000000000000600052602260045260246000fd5b6000600282049050600182168061014c57607f821691505b602082108114156101605761015f610105565b5b50919050565b610b6780620001766000396000f3fe608060405234801561001057600080fd5b50600436106100625760003560e01c806306fdde031461006757806358e25678146100855780635bff1cbd146100b55780637949c7aa146100e55780637a286dac14610118578063b0467deb14610148575b600080fd5b61006f610178565b60405161007c9190610739565b60405180910390f35b61009f600480360381019061009a91906107a5565b610206565b6040516100ac91906107ed565b60405180910390f35b6100cf60048036038101906100ca919061093d565b61023a565b6040516100dc91906107ed565b60405180910390f35b6100ff60048036038101906100fa9190610a0c565b610369565b60405161010f9493929190610a5b565b60405180910390f35b610132600480360381019061012d91906107a5565b6105bc565b60405161013f9190610ab5565b60405180910390f35b610162600480360381019061015d91906107a5565b6105da565b60405161016f9190610ab5565b60405180910390f35b6000805461018590610aff565b80601f01602080910402602001604051908101604052809291908181526020018280546101b190610aff565b80156101fe5780601f106101d3576101008083540402835291602001916101fe565b820191906000526020600020905b8154815290600101906020018083116101e157829003601f168201915b505050505081565b6000600282908060018154018082558091505060019003906000526020600020016000909190919091505560019050919050565b6000808611801561024b5750600085115b61025457600080fd5b600084511161026257600080fd5b600160008781526020019081526020016000206001018590806001815401808255809150506001900390600052602060002001600090919091909150558360016000888152602001908152602001600020600201600087815260200190815260200160002060000190805190602001906102dd9291906105fd565b5082600160008881526020019081526020016000206002016000878152602001908152602001600020600101908051906020019061031c9291906105fd565b5081600160008881526020019081526020016000206002016000878152602001908152602001600020600201908051906020019061035b9291906105fd565b506001905095945050505050565b60608060606000808611801561037f5750600085115b61038857600080fd5b6001600087815260200190815260200160002060020160008681526020019081526020016000206000016001600088815260200190815260200160002060020160008781526020019081526020016000206002016001600089815260200190815260200160002060020160008881526020019081526020016000206001018783805461041390610aff565b80601f016020809104026020016040519081016040528092919081815260200182805461043f90610aff565b801561048c5780601f106104615761010080835404028352916020019161048c565b820191906000526020600020905b81548152906001019060200180831161046f57829003601f168201915b5050505050935082805461049f90610aff565b80601f01602080910402602001604051908101604052809291908181526020018280546104cb90610aff565b80156105185780601f106104ed57610100808354040283529160200191610518565b820191906000526020600020905b8154815290600101906020018083116104fb57829003601f168201915b5050505050925081805461052b90610aff565b80601f016020809104026020016040519081016040528092919081815260200182805461055790610aff565b80156105a45780601f10610579576101008083540402835291602001916105a4565b820191906000526020600020905b81548152906001019060200180831161058757829003601f168201915b50505050509150935093509350935092959194509250565b60016020528060005260406000206000915090508060000154905081565b600060016000838152602001908152602001600020600101805490509050919050565b82805461060990610aff565b90600052602060002090601f01602090048101928261062b5760008555610672565b82601f1061064457805160ff1916838001178555610672565b82800160010185558215610672579182015b82811115610671578251825591602001919060010190610656565b5b50905061067f9190610683565b5090565b5b8082111561069c576000816000905550600101610684565b5090565b600081519050919050565b600082825260208201905092915050565b60005b838110156106da5780820151818401526020810190506106bf565b838111156106e9576000848401525b50505050565b6000601f19601f8301169050919050565b600061070b826106a0565b61071581856106ab565b93506107258185602086016106bc565b61072e816106ef565b840191505092915050565b600060208201905081810360008301526107538184610700565b905092915050565b6000604051905090565b600080fd5b600080fd5b6000819050919050565b6107828161076f565b811461078d57600080fd5b50565b60008135905061079f81610779565b92915050565b6000602082840312156107bb576107ba610765565b5b60006107c984828501610790565b91505092915050565b60008115159050919050565b6107e7816107d2565b82525050565b600060208201905061080260008301846107de565b92915050565b600080fd5b600080fd5b7f4e487b7100000000000000000000000000000000000000000000000000000000600052604160045260246000fd5b61084a826106ef565b810181811067ffffffffffffffff8211171561086957610868610812565b5b80604052505050565b600061087c61075b565b90506108888282610841565b919050565b600067ffffffffffffffff8211156108a8576108a7610812565b5b6108b1826106ef565b9050602081019050919050565b82818337600083830152505050565b60006108e06108db8461088d565b610872565b9050828152602081018484840111156108fc576108fb61080d565b5b6109078482856108be565b509392505050565b600082601f83011261092457610923610808565b5b81356109348482602086016108cd565b91505092915050565b600080600080600060a0868803121561095957610958610765565b5b600061096788828901610790565b955050602061097888828901610790565b945050604086013567ffffffffffffffff8111156109995761099861076a565b5b6109a58882890161090f565b935050606086013567ffffffffffffffff8111156109c6576109c561076a565b5b6109d28882890161090f565b925050608086013567ffffffffffffffff8111156109f3576109f261076a565b5b6109ff8882890161090f565b9150509295509295909350565b60008060408385031215610a2357610a22610765565b5b6000610a3185828601610790565b9250506020610a4285828601610790565b9150509250929050565b610a558161076f565b82525050565b60006080820190508181036000830152610a758187610700565b90508181036020830152610a898186610700565b90508181036040830152610a9d8185610700565b9050610aac6060830184610a4c565b95945050505050565b6000602082019050610aca6000830184610a4c565b92915050565b7f4e487b7100000000000000000000000000000000000000000000000000000000600052602260045260246000fd5b60006002820490506001821680610b1757607f821691505b60208210811415610b2b57610b2a610ad0565b5b5091905056fea264697066735822122084df12074efcdc2d7c1bc59add0fca82128843ca13f9deb25a1ca9d039902a9264736f6c634300080a0033",
  "immutableReferences": {},
  "source": "// //SPDX-License-Identifier: MIT\npragma solidity ^0.8.10;\n\ncontract Blocks {\n  string public name = \"Blocks\";\n\n  //define the File struct\n  struct File {\n    string fileHash; //CID\n    string fileType; //file type (pdf, jpg, etc.)\n    string description; //file description\n  }\n\n  //define the User struct\n  struct User {\n    uint256 userKey; //userKey\n    uint256[] fileList; //list of file keys for lookup\n    mapping(uint256 => File) fileStructs;\n  }\n\n  mapping(uint256 => User) public userStructs;\n  uint256[] userList; //list of user keys for enumeration\n\n  //   //define user creation event\n  //   event UserCreated(bytes32 userKey);\n\n  function newUser(uint256 userKey) public returns (bool success) {\n    userList.push(userKey);\n    return true;\n  }\n\n  function getUser(uint256 userKey) public view returns (uint256 fileCount) {\n    return (userStructs[userKey].fileList.length);\n  }\n\n  function addFile(\n    uint256 userKey,\n    uint256 fileKey,\n    string memory fileHash,\n    string memory fileType,\n    string memory description\n  ) public returns (bool success) {\n    require(userKey > 0 && fileKey > 0);\n    require(bytes(fileHash).length > 0);\n\n    userStructs[userKey].fileList.push(fileKey);\n    userStructs[userKey].fileStructs[fileKey].fileHash = fileHash;\n    userStructs[userKey].fileStructs[fileKey].fileType = fileType;\n    userStructs[userKey].fileStructs[fileKey].description = description;\n    return true;\n  }\n\n  function getUserFile(uint256 userKey, uint256 fileKey)\n    public\n    view\n    returns (\n      string memory fileHash,\n      string memory description,\n      string memory fileType,\n      uint256 fileNumber //aka fileKey\n    )\n  {\n    require(userKey > 0 && fileKey > 0);\n\n    return (\n      userStructs[userKey].fileStructs[fileKey].fileHash,\n      userStructs[userKey].fileStructs[fileKey].description,\n      userStructs[userKey].fileStructs[fileKey].fileType,\n      fileKey\n    );\n  }\n}\n",
  "sourcePath": "/Users/takumiotsuka/Documents/Fullstack/Senior/Blocks/contracts/Blocks.sol",
  "compiler": {
    "name": "solc",
    "version": "0.8.10+commit.fc410830.Emscripten.clang"
  },
  "schemaVersion": "3.4.3",
  "updatedAt": "2021-12-09T21:26:09.330Z",
  "networkType": "ethereum",
  "devdoc": {
    "kind": "dev",
    "methods": {},
    "version": 1
  },
  "userdoc": {
    "kind": "user",
    "methods": {},
    "version": 1
  }
}