{
  "contractName": "Blocks",
  "abi": [
    {
      "anonymous": false,
      "inputs": [
        {
          "indexed": false,
          "internalType": "uint256",
          "name": "id",
          "type": "uint256"
        },
        {
          "indexed": false,
          "internalType": "uint256",
          "name": "userId",
          "type": "uint256"
        },
        {
          "indexed": false,
          "internalType": "string",
          "name": "fileHash",
          "type": "string"
        },
        {
          "indexed": false,
          "internalType": "uint256",
          "name": "fileSize",
          "type": "uint256"
        },
        {
          "indexed": false,
          "internalType": "string",
          "name": "fileType",
          "type": "string"
        },
        {
          "indexed": false,
          "internalType": "string",
          "name": "fileName",
          "type": "string"
        },
        {
          "indexed": false,
          "internalType": "string",
          "name": "fileDescription",
          "type": "string"
        },
        {
          "indexed": false,
          "internalType": "uint256",
          "name": "uploadTime",
          "type": "uint256"
        },
        {
          "indexed": false,
          "internalType": "address",
          "name": "uploader",
          "type": "address"
        }
      ],
      "name": "FileUploaded",
      "type": "event"
    },
    {
      "inputs": [],
      "name": "name",
      "outputs": [
        {
          "internalType": "string",
          "name": "",
          "type": "string"
        }
      ],
      "stateMutability": "view",
      "type": "function",
      "constant": true
    },
    {
      "inputs": [
        {
          "internalType": "uint256",
          "name": "",
          "type": "uint256"
        }
      ],
      "name": "users",
      "outputs": [
        {
          "internalType": "uint256",
          "name": "id",
          "type": "uint256"
        },
        {
          "internalType": "uint256",
          "name": "fileCount",
          "type": "uint256"
        }
      ],
      "stateMutability": "view",
      "type": "function",
      "constant": true
    },
    {
      "inputs": [
        {
          "internalType": "uint256",
          "name": "_userId",
          "type": "uint256"
        },
        {
          "internalType": "string",
          "name": "_fileHash",
          "type": "string"
        },
        {
          "internalType": "uint256",
          "name": "_fileSize",
          "type": "uint256"
        },
        {
          "internalType": "string",
          "name": "_fileType",
          "type": "string"
        },
        {
          "internalType": "string",
          "name": "_fileName",
          "type": "string"
        },
        {
          "internalType": "string",
          "name": "_fileDescription",
          "type": "string"
        }
      ],
      "name": "uploadFile",
      "outputs": [],
      "stateMutability": "nonpayable",
      "type": "function"
    }
  ],
  "bytecode": "0x60806040526040518060400160405280600681526020017f426c6f636b7300000000000000000000000000000000000000000000000000008152506000908051906020019061004f929190610091565b50604051806040016040528060018152602001600281525060026000820151816000015560208201518160010155505034801561008b57600080fd5b50610195565b82805461009d90610163565b90600052602060002090601f0160209004810192826100bf5760008555610106565b82601f106100d857805160ff1916838001178555610106565b82800160010185558215610106579182015b828111156101055782518255916020019190600101906100ea565b5b5090506101139190610117565b5090565b5b80821115610130576000816000905550600101610118565b5090565b7f4e487b7100000000000000000000000000000000000000000000000000000000600052602260045260246000fd5b6000600282049050600182168061017b57607f821691505b6020821081141561018f5761018e610134565b5b50919050565b6107cd806101a46000396000f3fe608060405234801561001057600080fd5b50600436106100415760003560e01c806306fdde0314610046578063365b98b214610064578063bcaadc6e14610095575b600080fd5b61004e6100b1565b60405161005b9190610304565b60405180910390f35b61007e60048036038101906100799190610370565b61013f565b60405161008c9291906103ac565b60405180910390f35b6100af60048036038101906100aa919061050a565b610163565b005b600080546100be90610636565b80601f01602080910402602001604051908101604052809291908181526020018280546100ea90610636565b80156101375780601f1061010c57610100808354040283529160200191610137565b820191906000526020600020905b81548152906001019060200180831161011a57829003601f168201915b505050505081565b60016020528060005260406000206000915090508060000154908060010154905082565b6000861161017057600080fd5b600085511161017e57600080fd5b600083511161018c57600080fd5b600081511161019a57600080fd5b60008251116101a857600080fd5b600073ffffffffffffffffffffffffffffffffffffffff163373ffffffffffffffffffffffffffffffffffffffff1614156101e257600080fd5b600084116101ef57600080fd5b60016000878152602001908152602001600020600260008201548160000155600182015481600101559050507f80a8de0ebcd69f918f020fd8a46283c213972e5a92dd39db875a9caf4a1af27b6001878787878787423360405161025b999897969594939291906106ee565b60405180910390a1505050505050565b600081519050919050565b600082825260208201905092915050565b60005b838110156102a557808201518184015260208101905061028a565b838111156102b4576000848401525b50505050565b6000601f19601f8301169050919050565b60006102d68261026b565b6102e08185610276565b93506102f0818560208601610287565b6102f9816102ba565b840191505092915050565b6000602082019050818103600083015261031e81846102cb565b905092915050565b6000604051905090565b600080fd5b600080fd5b6000819050919050565b61034d8161033a565b811461035857600080fd5b50565b60008135905061036a81610344565b92915050565b60006020828403121561038657610385610330565b5b60006103948482850161035b565b91505092915050565b6103a68161033a565b82525050565b60006040820190506103c1600083018561039d565b6103ce602083018461039d565b9392505050565b600080fd5b600080fd5b7f4e487b7100000000000000000000000000000000000000000000000000000000600052604160045260246000fd5b610417826102ba565b810181811067ffffffffffffffff82111715610436576104356103df565b5b80604052505050565b6000610449610326565b9050610455828261040e565b919050565b600067ffffffffffffffff821115610475576104746103df565b5b61047e826102ba565b9050602081019050919050565b82818337600083830152505050565b60006104ad6104a88461045a565b61043f565b9050828152602081018484840111156104c9576104c86103da565b5b6104d484828561048b565b509392505050565b600082601f8301126104f1576104f06103d5565b5b813561050184826020860161049a565b91505092915050565b60008060008060008060c0878903121561052757610526610330565b5b600061053589828a0161035b565b965050602087013567ffffffffffffffff81111561055657610555610335565b5b61056289828a016104dc565b955050604061057389828a0161035b565b945050606087013567ffffffffffffffff81111561059457610593610335565b5b6105a089828a016104dc565b935050608087013567ffffffffffffffff8111156105c1576105c0610335565b5b6105cd89828a016104dc565b92505060a087013567ffffffffffffffff8111156105ee576105ed610335565b5b6105fa89828a016104dc565b9150509295509295509295565b7f4e487b7100000000000000000000000000000000000000000000000000000000600052602260045260246000fd5b6000600282049050600182168061064e57607f821691505b6020821081141561066257610661610607565b5b50919050565b6000819050919050565b6000819050919050565b600061069761069261068d84610668565b610672565b61033a565b9050919050565b6106a78161067c565b82525050565b600073ffffffffffffffffffffffffffffffffffffffff82169050919050565b60006106d8826106ad565b9050919050565b6106e8816106cd565b82525050565b600061012082019050610704600083018c61069e565b610711602083018b61039d565b8181036040830152610723818a6102cb565b9050610732606083018961039d565b818103608083015261074481886102cb565b905081810360a083015261075881876102cb565b905081810360c083015261076c81866102cb565b905061077b60e083018561039d565b6107896101008301846106df565b9a995050505050505050505056fea264697066735822122081841058a3aef73e056f1a1a24cd85a591011a009294de5656c5476e1298cdad64736f6c634300080a0033",
  "immutableReferences": {},
  "source": "//SPDX-License-Identifier: MIT\npragma solidity ^0.8.10;\n\ncontract Blocks {\n  string public name = \"Blocks\";\n  // uint public fileCount = 0;\n  mapping(uint256 => User) public users;\n  // mapping(uint => File) public files;\n\n  struct User {\n    uint256 id;\n    uint256 fileCount;\n    // File[] userFiles;\n  }\n\n  struct File {\n    uint256 id;\n    string fileHash;\n    uint256 fileSize;\n    string fileType;\n    string fileName;\n    string fileDescription;\n    uint256 uploadTime;\n    address uploader;\n  }\n\n  event FileUploaded(\n    uint256 id,\n    uint256 userId,\n    string fileHash,\n    uint256 fileSize,\n    string fileType,\n    string fileName,\n    string fileDescription,\n    uint256 uploadTime,\n    address uploader\n  );\n\n  // constructor() public { // when the contract is first deployed initialize state variable\n\n  // }\n\n  User user1 = User(1, 2);\n\n  function uploadFile(\n    uint256 _userId,\n    string memory _fileHash,\n    uint256 _fileSize,\n    string memory _fileType,\n    string memory _fileName,\n    string memory _fileDescription\n  ) public {\n    require(_userId > 0);\n    require(bytes(_fileHash).length > 0);\n    require(bytes(_fileType).length > 0);\n    require(bytes(_fileDescription).length > 0);\n    require(bytes(_fileName).length > 0);\n    require(msg.sender != address(0));\n    require(_fileSize > 0);\n\n    user1 = users[_userId];\n    // user.fileCount ++;\n\n    // string calldata mess = msg.sender;\n\n    // user1.File[user1.fileCount] = File(\n    //   user1.fileCount,\n    //   _fileHash,\n    //   _fileSize,\n    //   _fileType,\n    //   _fileName,\n    //   _fileDescription,\n    //   block.timestamp,\n    //   msg.sender\n    // );\n\n    emit FileUploaded(\n      1,\n      _userId,\n      _fileHash,\n      _fileSize,\n      _fileType,\n      _fileName,\n      _fileDescription,\n      block.timestamp,\n      msg.sender\n    );\n  }\n}\n",
  "sourcePath": "/Users/takumiotsuka/Documents/Fullstack/Senior/Blocks/contracts/Blocks.sol",
  "compiler": {
    "name": "solc",
    "version": "0.8.10+commit.fc410830.Emscripten.clang"
  },
  "schemaVersion": "3.4.3",
  "updatedAt": "2021-12-01T19:37:12.278Z",
  "networkType": "ethereum",
  "devdoc": {
    "kind": "dev",
    "methods": {},
    "version": 1
  },
  "userdoc": {
    "kind": "user",
    "methods": {},
    "version": 1
  }
}