{
  "contractName": "BlocksTest",
  "abi": [
    {
      "inputs": [],
      "stateMutability": "nonpayable",
      "type": "constructor"
    },
    {
      "anonymous": false,
      "inputs": [
        {
          "indexed": false,
          "internalType": "uint256",
          "name": "fileCount",
          "type": "uint256"
        },
        {
          "indexed": false,
          "internalType": "uint256",
          "name": "id",
          "type": "uint256"
        },
        {
          "indexed": false,
          "internalType": "string",
          "name": "fileHash",
          "type": "string"
        }
      ],
      "name": "FileUploaded",
      "type": "event"
    },
    {
      "anonymous": false,
      "inputs": [
        {
          "indexed": false,
          "internalType": "uint256",
          "name": "id",
          "type": "uint256"
        },
        {
          "indexed": false,
          "internalType": "string",
          "name": "userName",
          "type": "string"
        }
      ],
      "name": "UserCreated",
      "type": "event"
    },
    {
      "inputs": [],
      "name": "fileCount",
      "outputs": [
        {
          "internalType": "uint256",
          "name": "",
          "type": "uint256"
        }
      ],
      "stateMutability": "view",
      "type": "function"
    },
    {
      "inputs": [],
      "name": "name",
      "outputs": [
        {
          "internalType": "string",
          "name": "",
          "type": "string"
        }
      ],
      "stateMutability": "view",
      "type": "function"
    },
    {
      "inputs": [],
      "name": "userCount",
      "outputs": [
        {
          "internalType": "uint256",
          "name": "",
          "type": "uint256"
        }
      ],
      "stateMutability": "view",
      "type": "function"
    },
    {
      "inputs": [
        {
          "internalType": "uint256",
          "name": "",
          "type": "uint256"
        }
      ],
      "name": "users",
      "outputs": [
        {
          "internalType": "uint256",
          "name": "id",
          "type": "uint256"
        },
        {
          "internalType": "string",
          "name": "userName",
          "type": "string"
        },
        {
          "internalType": "uint256",
          "name": "fileCount",
          "type": "uint256"
        }
      ],
      "stateMutability": "view",
      "type": "function"
    },
    {
      "inputs": [
        {
          "internalType": "string",
          "name": "_userName",
          "type": "string"
        }
      ],
      "name": "addUser",
      "outputs": [],
      "stateMutability": "nonpayable",
      "type": "function"
    },
    {
      "inputs": [
        {
          "internalType": "uint256",
          "name": "_userId",
          "type": "uint256"
        },
        {
          "internalType": "string",
          "name": "_fileHash",
          "type": "string"
        }
      ],
      "name": "uploadUserFile",
      "outputs": [],
      "stateMutability": "nonpayable",
      "type": "function"
    }
  ],
  "bytecode": "0x60806040526040518060400160405280600a81526020017f426c6f636b735465737400000000000000000000000000000000000000000000815250600090805190602001906200005192919062000252565b503480156200005f57600080fd5b50620000a66040518060400160405280600881526020017f7465737455736572000000000000000000000000000000000000000000000000815250620000f460201b60201c565b620000ee60016040518060400160405280600f81526020017f72616e646f6d43494446696c6c657200000000000000000000000000000000008152506200018060201b60201c565b62000556565b60008151116200010357600080fd5b6002600081548092919062000118906200033b565b9190505550600060405180606001604052806002548152602001838152602001600081525090507fee305ea110dac8054a0415771cedeb3372a69ef1c3916abb2f5e1b3658d77c0e60025483604051620001749291906200043e565b60405180910390a15050565b600082116200018e57600080fd5b60008151116200019d57600080fd5b60036000815480929190620001b2906200033b565b919050555060006040518060400160405280600354815260200183815250905060016000600185620001e5919062000472565b8152602001908152602001600020600201600081548092919062000209906200033b565b91905055507f6cbf5c6455cb8d29b2ebc8b7ce13b6df5552119cc3eaa8d91783bab5e2442cd860035484846040516200024593929190620004ad565b60405180910390a1505050565b828054620002609062000520565b90600052602060002090601f016020900481019282620002845760008555620002d0565b82601f106200029f57805160ff1916838001178555620002d0565b82800160010185558215620002d0579182015b82811115620002cf578251825591602001919060010190620002b2565b5b509050620002df9190620002e3565b5090565b5b80821115620002fe576000816000905550600101620002e4565b5090565b7f4e487b7100000000000000000000000000000000000000000000000000000000600052601160045260246000fd5b6000819050919050565b6000620003488262000331565b91507fffffffffffffffffffffffffffffffffffffffffffffffffffffffffffffffff8214156200037e576200037d62000302565b5b600182019050919050565b620003948162000331565b82525050565b600081519050919050565b600082825260208201905092915050565b60005b83811015620003d6578082015181840152602081019050620003b9565b83811115620003e6576000848401525b50505050565b6000601f19601f8301169050919050565b60006200040a826200039a565b620004168185620003a5565b935062000428818560208601620003b6565b6200043381620003ec565b840191505092915050565b600060408201905062000455600083018562000389565b8181036020830152620004698184620003fd565b90509392505050565b60006200047f8262000331565b91506200048c8362000331565b925082821015620004a257620004a162000302565b5b828203905092915050565b6000606082019050620004c4600083018662000389565b620004d3602083018562000389565b8181036040830152620004e78184620003fd565b9050949350505050565b7f4e487b7100000000000000000000000000000000000000000000000000000000600052602260045260246000fd5b600060028204905060018216806200053957607f821691505b6020821081141562000550576200054f620004f1565b5b50919050565b6108eb80620005666000396000f3fe608060405234801561001057600080fd5b50600436106100625760003560e01c806306fdde031461006757806307973ccf1461008557806318b8275a146100a3578063365b98b2146100bf57806343953519146100f15780636685bb521461010f575b600080fd5b61006f61012b565b60405161007c919061045f565b60405180910390f35b61008d6101b9565b60405161009a919061049a565b60405180910390f35b6100bd60048036038101906100b891906105fe565b6101bf565b005b6100d960048036038101906100d49190610673565b610246565b6040516100e8939291906106a0565b60405180910390f35b6100f96102f8565b604051610106919061049a565b60405180910390f35b610129600480360381019061012491906106de565b6102fe565b005b6000805461013890610769565b80601f016020809104026020016040519081016040528092919081815260200182805461016490610769565b80156101b15780601f10610186576101008083540402835291602001916101b1565b820191906000526020600020905b81548152906001019060200180831161019457829003601f168201915b505050505081565b60025481565b60008151116101cd57600080fd5b600260008154809291906101e0906107ca565b9190505550600060405180606001604052806002548152602001838152602001600081525090507fee305ea110dac8054a0415771cedeb3372a69ef1c3916abb2f5e1b3658d77c0e6002548360405161023a929190610813565b60405180910390a15050565b600160205280600052604060002060009150905080600001549080600101805461026f90610769565b80601f016020809104026020016040519081016040528092919081815260200182805461029b90610769565b80156102e85780601f106102bd576101008083540402835291602001916102e8565b820191906000526020600020905b8154815290600101906020018083116102cb57829003601f168201915b5050505050908060020154905083565b60035481565b6000821161030b57600080fd5b600081511161031957600080fd5b6003600081548092919061032c906107ca565b91905055506000604051806040016040528060035481526020018381525090506001600060018561035d9190610843565b8152602001908152602001600020600201600081548092919061037f906107ca565b91905055507f6cbf5c6455cb8d29b2ebc8b7ce13b6df5552119cc3eaa8d91783bab5e2442cd860035484846040516103b993929190610877565b60405180910390a1505050565b600081519050919050565b600082825260208201905092915050565b60005b838110156104005780820151818401526020810190506103e5565b8381111561040f576000848401525b50505050565b6000601f19601f8301169050919050565b6000610431826103c6565b61043b81856103d1565b935061044b8185602086016103e2565b61045481610415565b840191505092915050565b600060208201905081810360008301526104798184610426565b905092915050565b6000819050919050565b61049481610481565b82525050565b60006020820190506104af600083018461048b565b92915050565b6000604051905090565b600080fd5b600080fd5b600080fd5b600080fd5b7f4e487b7100000000000000000000000000000000000000000000000000000000600052604160045260246000fd5b61050b82610415565b810181811067ffffffffffffffff8211171561052a576105296104d3565b5b80604052505050565b600061053d6104b5565b90506105498282610502565b919050565b600067ffffffffffffffff821115610569576105686104d3565b5b61057282610415565b9050602081019050919050565b82818337600083830152505050565b60006105a161059c8461054e565b610533565b9050828152602081018484840111156105bd576105bc6104ce565b5b6105c884828561057f565b509392505050565b600082601f8301126105e5576105e46104c9565b5b81356105f584826020860161058e565b91505092915050565b600060208284031215610614576106136104bf565b5b600082013567ffffffffffffffff811115610632576106316104c4565b5b61063e848285016105d0565b91505092915050565b61065081610481565b811461065b57600080fd5b50565b60008135905061066d81610647565b92915050565b600060208284031215610689576106886104bf565b5b60006106978482850161065e565b91505092915050565b60006060820190506106b5600083018661048b565b81810360208301526106c78185610426565b90506106d6604083018461048b565b949350505050565b600080604083850312156106f5576106f46104bf565b5b60006107038582860161065e565b925050602083013567ffffffffffffffff811115610724576107236104c4565b5b610730858286016105d0565b9150509250929050565b7f4e487b7100000000000000000000000000000000000000000000000000000000600052602260045260246000fd5b6000600282049050600182168061078157607f821691505b602082108114156107955761079461073a565b5b50919050565b7f4e487b7100000000000000000000000000000000000000000000000000000000600052601160045260246000fd5b60006107d582610481565b91507fffffffffffffffffffffffffffffffffffffffffffffffffffffffffffffffff8214156108085761080761079b565b5b600182019050919050565b6000604082019050610828600083018561048b565b818103602083015261083a8184610426565b90509392505050565b600061084e82610481565b915061085983610481565b92508282101561086c5761086b61079b565b5b828203905092915050565b600060608201905061088c600083018661048b565b610899602083018561048b565b81810360408301526108ab8184610426565b905094935050505056fea264697066735822122029472d05128d92c40c2138671a02c1705f5311468d4e2960ff20c7ec3f181e4064736f6c634300080a0033",
  "immutableReferences": {},
  "source": "//SPDX-License-Identifier: MIT\npragma solidity ^0.8.10;\n\ncontract BlocksTest {\n  string public name = \"BlocksTest\";\n  mapping(uint256 => User) public users; //mapped key-value of users present\n  //0:User1, 1:User2, 2:User3...\n  uint256 public userCount; //global counter to assign new users a new userId\n  uint256 public fileCount; //global counter to assign new files a new fileId\n\n  //define the User struct\n  struct User {\n    uint256 id; //unique id for each user\n    string userName; //userName\n    uint256 fileCount; //user-specific file count\n    // File[] userFiles; //is this definition correct?\n  }\n\n  //define the File struct\n  struct File {\n    uint256 id; //Unique id for each file\n    string fileHash; //CID\n  }\n\n  //define user creation event\n  event UserCreated(uint256 id, string userName);\n\n  //define file upload event\n  event FileUploaded(uint256 fileCount, uint256 id, string fileHash);\n\n  //function to add a new User\n  function addUser(string memory _userName) public {\n    require(bytes(_userName).length > 0); //require a name\n    userCount++; //update global user count\n    User memory newUser = User(userCount, _userName, 0); //new User instance\n    // users.push(newUser); //add new user to users []\n\n    emit UserCreated(userCount, _userName);\n  }\n\n  //function to upload a file for a specific User\n  function uploadUserFile(\n    uint256 _userId, //user the new file belongs to\n    string memory _fileHash //CID\n  ) public {\n    require(_userId > 0); //check for userId\n    require(bytes(_fileHash).length > 0); //check for CID\n    fileCount++; //increase global file count\n\n    File memory newFile = File(fileCount, _fileHash); //instantiate new file\n\n    users[_userId - 1].fileCount++; //increase file count of user\n    // users[_userId - 1].userFiles.push(newFile); //add new file instance to user's files\n\n    emit FileUploaded(\n      fileCount,\n      _userId,\n      _fileHash\n      // block.timestamp,\n      // msg.sender\n    );\n  }\n\n  constructor() public {\n    addUser(\"testUser\"); //test user instance (should be id:1, name:'testUser, fileCount: 0, Files[])\n    uploadUserFile(1, \"randomCIDFiller\"); //test file instance (should be id:1, fileHash: 'randomCIDFiller), and should be assigned to user1\n  }\n}\n",
  "sourcePath": "/Users/takumiotsuka/Documents/Fullstack/Senior/Blocks/contracts/TestContract.sol",
  "compiler": {
    "name": "solc",
    "version": "0.8.10+commit.fc410830.Emscripten.clang"
  },
  "schemaVersion": "3.4.3",
  "updatedAt": "2021-12-01T23:41:48.532Z",
  "devdoc": {
    "kind": "dev",
    "methods": {},
    "version": 1
  },
  "userdoc": {
    "kind": "user",
    "methods": {},
    "version": 1
  }
}