{
  "contractName": "Blocks",
  "abi": [
    {
      "inputs": [],
      "name": "name",
      "outputs": [
        {
          "internalType": "string",
          "name": "",
          "type": "string"
        }
      ],
      "stateMutability": "view",
      "type": "function",
      "constant": true
    },
    {
      "inputs": [
        {
          "internalType": "uint256",
          "name": "",
          "type": "uint256"
        }
      ],
      "name": "userStructs",
      "outputs": [
        {
          "internalType": "string",
          "name": "userName",
          "type": "string"
        }
      ],
      "stateMutability": "view",
      "type": "function",
      "constant": true
    },
    {
      "inputs": [
        {
          "internalType": "uint256",
          "name": "userKey",
          "type": "uint256"
        },
        {
          "internalType": "string",
          "name": "userName",
          "type": "string"
        }
      ],
      "name": "newUser",
      "outputs": [
        {
          "internalType": "bool",
          "name": "success",
          "type": "bool"
        }
      ],
      "stateMutability": "nonpayable",
      "type": "function"
    },
    {
      "inputs": [
        {
          "internalType": "uint256",
          "name": "userKey",
          "type": "uint256"
        }
      ],
      "name": "getUser",
      "outputs": [
        {
          "internalType": "string",
          "name": "userName",
          "type": "string"
        },
        {
          "internalType": "uint256",
          "name": "fileCount",
          "type": "uint256"
        }
      ],
      "stateMutability": "view",
      "type": "function",
      "constant": true
    },
    {
      "inputs": [
        {
          "internalType": "uint256",
          "name": "userKey",
          "type": "uint256"
        },
        {
          "internalType": "uint256",
          "name": "fileKey",
          "type": "uint256"
        },
        {
          "internalType": "string",
          "name": "fileHash",
          "type": "string"
        },
        {
          "internalType": "string",
          "name": "fileType",
          "type": "string"
        },
        {
          "internalType": "string",
          "name": "description",
          "type": "string"
        }
      ],
      "name": "addFile",
      "outputs": [
        {
          "internalType": "bool",
          "name": "success",
          "type": "bool"
        }
      ],
      "stateMutability": "nonpayable",
      "type": "function"
    },
    {
      "inputs": [
        {
          "internalType": "uint256",
          "name": "userKey",
          "type": "uint256"
        },
        {
          "internalType": "uint256",
          "name": "fileKey",
          "type": "uint256"
        }
      ],
      "name": "getUserFile",
      "outputs": [
        {
          "internalType": "string",
          "name": "fileHash",
          "type": "string"
        },
        {
          "internalType": "string",
          "name": "description",
          "type": "string"
        },
        {
          "internalType": "string",
          "name": "fileType",
          "type": "string"
        },
        {
          "internalType": "uint256",
          "name": "fileNumber",
          "type": "uint256"
        }
      ],
      "stateMutability": "view",
      "type": "function",
      "constant": true
    }
  ],
  "bytecode": "0x60806040526040518060400160405280600681526020017f426c6f636b730000000000000000000000000000000000000000000000000000815250600090805190602001906200005192919062000066565b503480156200005f57600080fd5b506200017b565b828054620000749062000145565b90600052602060002090601f016020900481019282620000985760008555620000e4565b82601f10620000b357805160ff1916838001178555620000e4565b82800160010185558215620000e4579182015b82811115620000e3578251825591602001919060010190620000c6565b5b509050620000f39190620000f7565b5090565b5b8082111562000112576000816000905550600101620000f8565b5090565b7f4e487b7100000000000000000000000000000000000000000000000000000000600052602260045260246000fd5b600060028204905060018216806200015e57607f821691505b6020821081141562000175576200017462000116565b5b50919050565b610d33806200018b6000396000f3fe608060405234801561001057600080fd5b50600436106100625760003560e01c806306fdde03146100675780635bff1cbd146100855780637949c7aa146100b55780637a286dac146100e85780638a4366c014610118578063b0467deb14610148575b600080fd5b61006f610179565b60405161007c9190610894565b60405180910390f35b61009f600480360381019061009a9190610a35565b610207565b6040516100ac9190610b1f565b60405180910390f35b6100cf60048036038101906100ca9190610b3a565b610336565b6040516100df9493929190610b89565b60405180910390f35b61010260048036038101906100fd9190610be3565b610589565b60405161010f9190610894565b60405180910390f35b610132600480360381019061012d9190610c10565b61062f565b60405161013f9190610b1f565b60405180910390f35b610162600480360381019061015d9190610be3565b61068f565b604051610170929190610c6c565b60405180910390f35b6000805461018690610ccb565b80601f01602080910402602001604051908101604052809291908181526020018280546101b290610ccb565b80156101ff5780601f106101d4576101008083540402835291602001916101ff565b820191906000526020600020905b8154815290600101906020018083116101e257829003601f168201915b505050505081565b600080861180156102185750600085115b61022157600080fd5b600084511161022f57600080fd5b600160008781526020019081526020016000206001018590806001815401808255809150506001900390600052602060002001600090919091909150558360016000888152602001908152602001600020600201600087815260200190815260200160002060000190805190602001906102aa929190610758565b508260016000888152602001908152602001600020600201600087815260200190815260200160002060010190805190602001906102e9929190610758565b50816001600088815260200190815260200160002060020160008781526020019081526020016000206002019080519060200190610328929190610758565b506001905095945050505050565b60608060606000808611801561034c5750600085115b61035557600080fd5b600160008781526020019081526020016000206002016000868152602001908152602001600020600001600160008881526020019081526020016000206002016000878152602001908152602001600020600201600160008981526020019081526020016000206002016000888152602001908152602001600020600101878380546103e090610ccb565b80601f016020809104026020016040519081016040528092919081815260200182805461040c90610ccb565b80156104595780601f1061042e57610100808354040283529160200191610459565b820191906000526020600020905b81548152906001019060200180831161043c57829003601f168201915b5050505050935082805461046c90610ccb565b80601f016020809104026020016040519081016040528092919081815260200182805461049890610ccb565b80156104e55780601f106104ba576101008083540402835291602001916104e5565b820191906000526020600020905b8154815290600101906020018083116104c857829003601f168201915b505050505092508180546104f890610ccb565b80601f016020809104026020016040519081016040528092919081815260200182805461052490610ccb565b80156105715780601f1061054657610100808354040283529160200191610571565b820191906000526020600020905b81548152906001019060200180831161055457829003601f168201915b50505050509150935093509350935092959194509250565b60016020528060005260406000206000915090508060000180546105ac90610ccb565b80601f01602080910402602001604051908101604052809291908181526020018280546105d890610ccb565b80156106255780601f106105fa57610100808354040283529160200191610625565b820191906000526020600020905b81548152906001019060200180831161060857829003601f168201915b5050505050905081565b60008160016000858152602001908152602001600020600001908051906020019061065b929190610758565b5060028390806001815401808255809150506001900390600052602060002001600090919091909150556001905092915050565b606060006001600084815260200190815260200160002060000160016000858152602001908152602001600020600101805490508180546106cf90610ccb565b80601f01602080910402602001604051908101604052809291908181526020018280546106fb90610ccb565b80156107485780601f1061071d57610100808354040283529160200191610748565b820191906000526020600020905b81548152906001019060200180831161072b57829003601f168201915b5050505050915091509150915091565b82805461076490610ccb565b90600052602060002090601f01602090048101928261078657600085556107cd565b82601f1061079f57805160ff19168380011785556107cd565b828001600101855582156107cd579182015b828111156107cc5782518255916020019190600101906107b1565b5b5090506107da91906107de565b5090565b5b808211156107f75760008160009055506001016107df565b5090565b600081519050919050565b600082825260208201905092915050565b60005b8381101561083557808201518184015260208101905061081a565b83811115610844576000848401525b50505050565b6000601f19601f8301169050919050565b6000610866826107fb565b6108708185610806565b9350610880818560208601610817565b6108898161084a565b840191505092915050565b600060208201905081810360008301526108ae818461085b565b905092915050565b6000604051905090565b600080fd5b600080fd5b6000819050919050565b6108dd816108ca565b81146108e857600080fd5b50565b6000813590506108fa816108d4565b92915050565b600080fd5b600080fd5b7f4e487b7100000000000000000000000000000000000000000000000000000000600052604160045260246000fd5b6109428261084a565b810181811067ffffffffffffffff821117156109615761096061090a565b5b80604052505050565b60006109746108b6565b90506109808282610939565b919050565b600067ffffffffffffffff8211156109a05761099f61090a565b5b6109a98261084a565b9050602081019050919050565b82818337600083830152505050565b60006109d86109d384610985565b61096a565b9050828152602081018484840111156109f4576109f3610905565b5b6109ff8482856109b6565b509392505050565b600082601f830112610a1c57610a1b610900565b5b8135610a2c8482602086016109c5565b91505092915050565b600080600080600060a08688031215610a5157610a506108c0565b5b6000610a5f888289016108eb565b9550506020610a70888289016108eb565b945050604086013567ffffffffffffffff811115610a9157610a906108c5565b5b610a9d88828901610a07565b935050606086013567ffffffffffffffff811115610abe57610abd6108c5565b5b610aca88828901610a07565b925050608086013567ffffffffffffffff811115610aeb57610aea6108c5565b5b610af788828901610a07565b9150509295509295909350565b60008115159050919050565b610b1981610b04565b82525050565b6000602082019050610b346000830184610b10565b92915050565b60008060408385031215610b5157610b506108c0565b5b6000610b5f858286016108eb565b9250506020610b70858286016108eb565b9150509250929050565b610b83816108ca565b82525050565b60006080820190508181036000830152610ba3818761085b565b90508181036020830152610bb7818661085b565b90508181036040830152610bcb818561085b565b9050610bda6060830184610b7a565b95945050505050565b600060208284031215610bf957610bf86108c0565b5b6000610c07848285016108eb565b91505092915050565b60008060408385031215610c2757610c266108c0565b5b6000610c35858286016108eb565b925050602083013567ffffffffffffffff811115610c5657610c556108c5565b5b610c6285828601610a07565b9150509250929050565b60006040820190508181036000830152610c86818561085b565b9050610c956020830184610b7a565b9392505050565b7f4e487b7100000000000000000000000000000000000000000000000000000000600052602260045260246000fd5b60006002820490506001821680610ce357607f821691505b60208210811415610cf757610cf6610c9c565b5b5091905056fea264697066735822122093df82dbfeee572fda6d8a6ebfb5e2fe43041a9207e9702cff36f4c9e092180d64736f6c634300080a0033",
  "immutableReferences": {},
  "source": "// //SPDX-License-Identifier: MIT\npragma solidity ^0.8.10;\n\ncontract Blocks {\n  string public name = \"Blocks\";\n\n  //define the File struct\n  struct File {\n    string fileHash; //CID\n    string fileType; //file type (pdf, jpg, etc.)\n    string description; //file description\n  }\n\n  //define the User struct\n  struct User {\n    string userName; //userName\n    uint256[] fileList; //list of file keys for lookup\n    mapping(uint256 => File) fileStructs;\n  }\n\n  mapping(uint256 => User) public userStructs;\n  uint256[] userList; //list of user keys to enumerate - do we need?\n\n  //   constructor() public {}\n\n  //   //define user creation event\n  //   event UserCreated(bytes32 userKey, string userName);\n\n  function newUser(uint256 userKey, string memory userName)\n    public\n    returns (bool success)\n  {\n    userStructs[userKey].userName = userName;\n    userList.push(userKey); //do we need this?\n    return true;\n  }\n\n  function getUser(uint256 userKey)\n    public\n    view\n    returns (string memory userName, uint256 fileCount)\n  {\n    return (\n      userStructs[userKey].userName,\n      userStructs[userKey].fileList.length\n    );\n  }\n\n  function addFile(\n    uint256 userKey,\n    uint256 fileKey,\n    string memory fileHash,\n    string memory fileType,\n    string memory description\n  ) public returns (bool success) {\n    require(userKey > 0 && fileKey > 0);\n    require(bytes(fileHash).length > 0);\n\n    userStructs[userKey].fileList.push(fileKey);\n    userStructs[userKey].fileStructs[fileKey].fileHash = fileHash;\n    userStructs[userKey].fileStructs[fileKey].fileType = fileType;\n    userStructs[userKey].fileStructs[fileKey].description = description;\n    return true;\n  }\n\n  function getUserFile(uint256 userKey, uint256 fileKey)\n    public\n    view\n    returns (\n      string memory fileHash,\n      string memory description,\n      string memory fileType,\n      uint256 fileNumber //aka fileKey\n    )\n  {\n    require(userKey > 0 && fileKey > 0);\n\n    return (\n      userStructs[userKey].fileStructs[fileKey].fileHash,\n      userStructs[userKey].fileStructs[fileKey].description,\n      userStructs[userKey].fileStructs[fileKey].fileType,\n      fileKey\n    );\n  }\n}\n",
  "sourcePath": "/Users/takumiotsuka/Documents/Fullstack/Senior/Blocks/contracts/Blocks.sol",
  "compiler": {
    "name": "solc",
    "version": "0.8.10+commit.fc410830.Emscripten.clang"
  },
  "schemaVersion": "3.4.3",
  "updatedAt": "2021-12-09T18:48:47.128Z",
  "networkType": "ethereum",
  "devdoc": {
    "kind": "dev",
    "methods": {},
    "version": 1
  },
  "userdoc": {
    "kind": "user",
    "methods": {},
    "version": 1
  }
}